{
  "contractName": "Marketplace",
  "abi": [
    {
      "constant": false,
      "inputs": [
        {
          "name": "_tokenContract",
          "type": "address"
        },
        {
          "name": "_bookPrice",
          "type": "uint256"
        },
        {
          "name": "_numCopies",
          "type": "uint256"
        }
      ],
      "name": "sell",
      "outputs": [],
      "payable": false,
      "stateMutability": "nonpayable",
      "type": "function"
    },
    {
      "constant": false,
      "inputs": [
        {
          "name": "_bookId",
          "type": "uint256"
        },
        {
          "name": "_listingId",
          "type": "uint256"
        },
        {
          "name": "_numToBuy",
          "type": "uint256"
        }
      ],
      "name": "buy",
      "outputs": [],
      "payable": true,
      "stateMutability": "payable",
      "type": "function"
    },
    {
      "constant": false,
      "inputs": [
        {
          "name": "_title",
          "type": "string"
        },
        {
          "name": "_totalSupply",
          "type": "uint256"
        },
        {
          "name": "_taxRate",
          "type": "uint256"
        }
      ],
      "name": "publish",
      "outputs": [
        {
          "name": "b",
          "type": "address"
        }
      ],
      "payable": false,
      "stateMutability": "nonpayable",
      "type": "function"
    }
  ],
  "bytecode": "0x608060405234801561001057600080fd5b50611382806100206000396000f3fe608060405260043610610057576000357c0100000000000000000000000000000000000000000000000000000000900463ffffffff16806340993b261461005c5780636a2724621461009e5780636a94b66a14610103575b600080fd5b61009c6004803603606081101561007257600080fd5b8101908080359060200190929190803590602001909291908035906020019092919050505061021f565b005b3480156100aa57600080fd5b50610101600480360360608110156100c157600080fd5b81019080803573ffffffffffffffffffffffffffffffffffffffff1690602001909291908035906020019092919080359060200190929190505050610794565b005b34801561010f57600080fd5b506101dd6004803603606081101561012657600080fd5b810190808035906020019064010000000081111561014357600080fd5b82018360208201111561015557600080fd5b8035906020019184600183028401116401000000008311171561017757600080fd5b91908080601f016020809104026020016040519081016040528093929190818152602001838380828437600081840152601f19601f8201169050808301925050505050505091929192908035906020019092919080359060200190929190505050610a53565b604051808273ffffffffffffffffffffffffffffffffffffffff1673ffffffffffffffffffffffffffffffffffffffff16815260200191505060405180910390f35b816000808581526020019081526020016000208054905011151561024257600080fd5b60008060008581526020019081526020016000208381548110151561026357fe5b906000526020600020906004020190508181600201541015151561028657600080fd5b3481600101548260020154021015151561029f57600080fd5b8060000160009054906101000a900473ffffffffffffffffffffffffffffffffffffffff1673ffffffffffffffffffffffffffffffffffffffff166323b872dd8260030160009054906101000a900473ffffffffffffffffffffffffffffffffffffffff1633856040518463ffffffff167c0100000000000000000000000000000000000000000000000000000000028152600401808473ffffffffffffffffffffffffffffffffffffffff1673ffffffffffffffffffffffffffffffffffffffff1681526020018373ffffffffffffffffffffffffffffffffffffffff1673ffffffffffffffffffffffffffffffffffffffff1681526020018281526020019350505050602060405180830381600087803b1580156103be57600080fd5b505af11580156103d2573d6000803e3d6000fd5b505050506040513d60208110156103e857600080fd5b8101908080519060200190929190505050151561040457600080fd5b8181600201600082825403925050819055508060030160009054906101000a900473ffffffffffffffffffffffffffffffffffffffff1673ffffffffffffffffffffffffffffffffffffffff166108fc60648360000160009054906101000a900473ffffffffffffffffffffffffffffffffffffffff1673ffffffffffffffffffffffffffffffffffffffff1663771a3a1d6040518163ffffffff167c010000000000000000000000000000000000000000000000000000000002815260040160206040518083038186803b1580156104dc57600080fd5b505afa1580156104f0573d6000803e3d6000fd5b505050506040513d602081101561050657600080fd5b810190808051906020019092919050505081151561052057fe5b046001038360010154846002015402029081150290604051600060405180830381858888f1935050505015801561055b573d6000803e3d6000fd5b508060000160009054906101000a900473ffffffffffffffffffffffffffffffffffffffff1673ffffffffffffffffffffffffffffffffffffffff16638c72c54e6040518163ffffffff167c010000000000000000000000000000000000000000000000000000000002815260040160206040518083038186803b1580156105e257600080fd5b505afa1580156105f6573d6000803e3d6000fd5b505050506040513d602081101561060c57600080fd5b810190808051906020019092919050505073ffffffffffffffffffffffffffffffffffffffff166108fc60648360000160009054906101000a900473ffffffffffffffffffffffffffffffffffffffff1673ffffffffffffffffffffffffffffffffffffffff1663771a3a1d6040518163ffffffff167c010000000000000000000000000000000000000000000000000000000002815260040160206040518083038186803b1580156106be57600080fd5b505afa1580156106d2573d6000803e3d6000fd5b505050506040513d60208110156106e857600080fd5b810190808051906020019092919050505084600101548560020154020281151561070e57fe5b049081150290604051600060405180830381858888f1935050505015801561073a573d6000803e3d6000fd5b503373ffffffffffffffffffffffffffffffffffffffff166108fc826001015483600201540234039081150290604051600060405180830381858888f1935050505015801561078d573d6000803e3d6000fd5b5050505050565b808373ffffffffffffffffffffffffffffffffffffffff166370a08231336040518263ffffffff167c0100000000000000000000000000000000000000000000000000000000028152600401808273ffffffffffffffffffffffffffffffffffffffff1673ffffffffffffffffffffffffffffffffffffffff16815260200191505060206040518083038186803b15801561082e57600080fd5b505afa158015610842573d6000803e3d6000fd5b505050506040513d602081101561085857600080fd5b81019080805190602001909291905050501015151561087657600080fd5b61087e610b24565b6080604051908101604052808573ffffffffffffffffffffffffffffffffffffffff1681526020018481526020018381526020013373ffffffffffffffffffffffffffffffffffffffff1681525090506000808573ffffffffffffffffffffffffffffffffffffffff1663e912832d6040518163ffffffff167c010000000000000000000000000000000000000000000000000000000002815260040160206040518083038186803b15801561093357600080fd5b505afa158015610947573d6000803e3d6000fd5b505050506040513d602081101561095d57600080fd5b81019080805190602001909291905050508152602001908152602001600020819080600181540180825580915050906001820390600052602060002090600402016000909192909190915060008201518160000160006101000a81548173ffffffffffffffffffffffffffffffffffffffff021916908373ffffffffffffffffffffffffffffffffffffffff160217905550602082015181600101556040820151816002015560608201518160030160006101000a81548173ffffffffffffffffffffffffffffffffffffffff021916908373ffffffffffffffffffffffffffffffffffffffff16021790555050505050505050565b600080846001548585610a64610b79565b8080602001858152602001848152602001838152602001828103825286818151815260200191508051906020019080838360005b83811015610ab3578082015181840152602081019050610a98565b50505050905090810190601f168015610ae05780820380516001836020036101000a031916815260200191505b5095505050505050604051809103906000f080158015610b04573d6000803e3d6000fd5b509050600160008154809291906001019190505550809150509392505050565b608060405190810160405280600073ffffffffffffffffffffffffffffffffffffffff1681526020016000815260200160008152602001600073ffffffffffffffffffffffffffffffffffffffff1681525090565b6040516107cd80610b8a8339019056fe608060405234801561001057600080fd5b506040516107cd3803806107cd8339810180604052608081101561003357600080fd5b81019080805164010000000081111561004b57600080fd5b8281019050602081018481111561006157600080fd5b815185600182028301116401000000008211171561007e57600080fd5b505092919060200180519060200190929190805190602001909291908051906020019092919050505083600090805190602001906100bd929190610183565b5082600181905550816002819055508060038190555033600460006101000a81548173ffffffffffffffffffffffffffffffffffffffff021916908373ffffffffffffffffffffffffffffffffffffffff1602179055508160056000600460009054906101000a900473ffffffffffffffffffffffffffffffffffffffff1673ffffffffffffffffffffffffffffffffffffffff1673ffffffffffffffffffffffffffffffffffffffff1681526020019081526020016000208190555050505050610228565b828054600181600116156101000203166002900490600052602060002090601f016020900481019282601f106101c457805160ff19168380011785556101f2565b828001600101855582156101f2579182015b828111156101f15782518255916020019190600101906101d6565b5b5090506101ff9190610203565b5090565b61022591905b80821115610221576000816000905550600101610209565b5090565b90565b610596806102376000396000f3fe608060405260043610610083576000357c0100000000000000000000000000000000000000000000000000000000900463ffffffff16806318160ddd1461008857806323b872dd146100b35780634a79d50c1461014657806370a08231146101d6578063771a3a1d1461023b5780638c72c54e14610266578063e912832d146102bd575b600080fd5b34801561009457600080fd5b5061009d6102e8565b6040518082815260200191505060405180910390f35b3480156100bf57600080fd5b5061012c600480360360608110156100d657600080fd5b81019080803573ffffffffffffffffffffffffffffffffffffffff169060200190929190803573ffffffffffffffffffffffffffffffffffffffff169060200190929190803590602001909291905050506102ee565b604051808215151515815260200191505060405180910390f35b34801561015257600080fd5b5061015b610482565b6040518080602001828103825283818151815260200191508051906020019080838360005b8381101561019b578082015181840152602081019050610180565b50505050905090810190601f1680156101c85780820380516001836020036101000a031916815260200191505b509250505060405180910390f35b3480156101e257600080fd5b50610225600480360360208110156101f957600080fd5b81019080803573ffffffffffffffffffffffffffffffffffffffff169060200190929190505050610520565b6040518082815260200191505060405180910390f35b34801561024757600080fd5b50610250610538565b6040518082815260200191505060405180910390f35b34801561027257600080fd5b5061027b61053e565b604051808273ffffffffffffffffffffffffffffffffffffffff1673ffffffffffffffffffffffffffffffffffffffff16815260200191505060405180910390f35b3480156102c957600080fd5b506102d2610564565b6040518082815260200191505060405180910390f35b60025481565b600081600560008673ffffffffffffffffffffffffffffffffffffffff1673ffffffffffffffffffffffffffffffffffffffff168152602001908152602001600020541015151561033e57600080fd5b81600560008673ffffffffffffffffffffffffffffffffffffffff1673ffffffffffffffffffffffffffffffffffffffff1681526020019081526020016000206000828254039250508190555081600560008573ffffffffffffffffffffffffffffffffffffffff1673ffffffffffffffffffffffffffffffffffffffff168152602001908152602001600020600082825401925050819055507fddf252ad1be2c89b69c2b068fc378daa952ba7f163c4a11628f55a4df523b3ef848484604051808473ffffffffffffffffffffffffffffffffffffffff1673ffffffffffffffffffffffffffffffffffffffff1681526020018373ffffffffffffffffffffffffffffffffffffffff1673ffffffffffffffffffffffffffffffffffffffff168152602001828152602001935050505060405180910390a1600190509392505050565b60008054600181600116156101000203166002900480601f0160208091040260200160405190810160405280929190818152602001828054600181600116156101000203166002900480156105185780601f106104ed57610100808354040283529160200191610518565b820191906000526020600020905b8154815290600101906020018083116104fb57829003601f168201915b505050505081565b60056020528060005260406000206000915090505481565b60035481565b600460009054906101000a900473ffffffffffffffffffffffffffffffffffffffff1681565b6001548156fea165627a7a723058204d6e2552a4812125159adeb345c6cce3ca68af759c14d605ecbbc37a3eb3f3e50029a165627a7a72305820cd6cdf44f23cb117bcfba06f682808cb8deae7a3985439d202de0c0548bc1e710029",
  "source": "\npragma solidity >=0.4.22 <0.6.0;\n\nimport \"./EBookToken.sol\";\n\ncontract Marketplace {\n\n  mapping(uint256 => Listing[]) private listings;\n  uint256 numBooks;\n\n  struct Listing {\n    EBookToken tokenContract;\n    uint256 bookPrice;\n    uint256 numCopies;\n    address payable owner;\n  }\n\n  function sell(EBookToken _tokenContract, uint256 _bookPrice, uint256 _numCopies) public {\n    require(_tokenContract.balanceOf(msg.sender) >= _numCopies);\n\n    Listing memory l = Listing(_tokenContract, _bookPrice, _numCopies, msg.sender);\n\n    listings[_tokenContract.bookId()].push(l);\n\n  }\n\n  function buy(uint256 _bookId, uint _listingId, uint256 _numToBuy) public payable {\n    require(listings[_bookId].length > _listingId);\n\n    Listing storage l = listings[_bookId][_listingId];\n    require(l.numCopies >= _numToBuy);\n    require(l.numCopies * l.bookPrice >= msg.value);\n\n    // transfers the tokens\n    require(l.tokenContract.transferFrom(l.owner, msg.sender, _numToBuy));\n    l.numCopies -= _numToBuy;\n\n    l.owner.transfer(l.numCopies * l.bookPrice * (1 - l.tokenContract.taxRate() / 100));\n    l.tokenContract.publisher().transfer(l.numCopies * l.bookPrice * l.tokenContract.taxRate() / 100);\n    msg.sender.transfer(msg.value - l.numCopies * l.bookPrice);\n\n  }\n\n  function publish(string memory _title, uint256 _totalSupply, uint256 _taxRate) public returns (EBookToken b) {\n    EBookToken book = new EBookToken(_title, numBooks, _totalSupply, _taxRate);\n    numBooks++;\n    return book;\n  }\n\n\n\n}\n",
  "sourcePath": "/Users/timothyhuang/Desktop/ipsp19-textbook-rental/contracts/Marketplace.sol",
  "compiler": {
    "name": "solc",
    "version": "0.5.0+commit.1d4f565a.Emscripten.clang"
  },
  "schemaVersion": "3.0.1",
  "updatedAt": "2019-04-25T03:08:18.834Z",
  "devdoc": {
    "methods": {}
  },
  "userdoc": {
    "methods": {}
  }
}