{
  "contractName": "Marketplace",
  "abi": [
    {
      "constant": true,
      "inputs": [],
      "name": "numBooks",
      "outputs": [
        {
          "name": "",
          "type": "uint256"
        }
      ],
      "payable": false,
      "stateMutability": "view",
      "type": "function",
      "signature": "0x250caccc"
    },
    {
      "constant": true,
      "inputs": [
        {
          "name": "",
          "type": "uint256"
        },
        {
          "name": "",
          "type": "uint256"
        }
      ],
      "name": "listings",
      "outputs": [
        {
          "name": "tokenContract",
          "type": "address"
        },
        {
          "name": "bookPrice",
          "type": "uint256"
        },
        {
          "name": "numCopies",
          "type": "uint256"
        },
        {
          "name": "owner",
          "type": "address"
        }
      ],
      "payable": false,
      "stateMutability": "view",
      "type": "function",
      "signature": "0x4d3084d3"
    },
    {
      "constant": true,
      "inputs": [
        {
          "name": "",
          "type": "uint256"
        }
      ],
      "name": "numListings",
      "outputs": [
        {
          "name": "",
          "type": "uint256"
        }
      ],
      "payable": false,
      "stateMutability": "view",
      "type": "function",
      "signature": "0x6dd365c3"
    },
    {
      "inputs": [],
      "payable": true,
      "stateMutability": "payable",
      "type": "constructor",
      "signature": "constructor"
    },
    {
      "constant": false,
      "inputs": [
        {
          "name": "_x",
          "type": "uint256"
        }
      ],
      "name": "numListin",
      "outputs": [
        {
          "name": "",
          "type": "uint256"
        }
      ],
      "payable": false,
      "stateMutability": "nonpayable",
      "type": "function",
      "signature": "0xc428de94"
    },
    {
      "constant": false,
      "inputs": [
        {
          "name": "_tokenContract",
          "type": "address"
        },
        {
          "name": "_bookPrice",
          "type": "uint256"
        },
        {
          "name": "_numCopies",
          "type": "uint256"
        }
      ],
      "name": "sell",
      "outputs": [],
      "payable": false,
      "stateMutability": "nonpayable",
      "type": "function",
      "signature": "0x6a272462"
    },
    {
      "constant": false,
      "inputs": [
        {
          "name": "_bookId",
          "type": "uint256"
        },
        {
          "name": "_listingId",
          "type": "uint256"
        },
        {
          "name": "_numToBuy",
          "type": "uint256"
        }
      ],
      "name": "buy",
      "outputs": [],
      "payable": true,
      "stateMutability": "payable",
      "type": "function",
      "signature": "0x40993b26"
    },
    {
      "constant": false,
      "inputs": [
        {
          "name": "_title",
          "type": "string"
        },
        {
          "name": "_totalSupply",
          "type": "uint256"
        },
        {
          "name": "_taxRate",
          "type": "uint256"
        }
      ],
      "name": "publish",
      "outputs": [
        {
          "name": "b",
          "type": "address"
        }
      ],
      "payable": false,
      "stateMutability": "nonpayable",
      "type": "function",
      "signature": "0x6a94b66a"
    },
    {
      "constant": false,
      "inputs": [
        {
          "name": "_title",
          "type": "string"
        },
        {
          "name": "_totalSupply",
          "type": "uint256"
        },
        {
          "name": "_taxRate",
          "type": "uint256"
        },
        {
          "name": "_bookPrice",
          "type": "uint256"
        }
      ],
      "name": "publishAndSell",
      "outputs": [],
      "payable": false,
      "stateMutability": "nonpayable",
      "type": "function",
      "signature": "0x40bddea5"
    }
  ],
  "bytecode": "0x60806040526117c8806100136000396000f3fe60806040526004361061008e576000357c0100000000000000000000000000000000000000000000000000000000900463ffffffff168063250caccc1461009357806340993b26146100be57806340bddea5146101005780634d3084d3146101e65780636a272462146102ac5780636a94b66a146103115780636dd365c31461042d578063c428de941461047c575b600080fd5b34801561009f57600080fd5b506100a86104cb565b6040518082815260200191505060405180910390f35b6100fe600480360360608110156100d457600080fd5b810190808035906020019092919080359060200190929190803590602001909291905050506104d1565b005b34801561010c57600080fd5b506101e46004803603608081101561012357600080fd5b810190808035906020019064010000000081111561014057600080fd5b82018360208201111561015257600080fd5b8035906020019184600183028401116401000000008311171561017457600080fd5b91908080601f016020809104026020016040519081016040528093929190818152602001838380828437600081840152601f19601f820116905080830192505050505050509192919290803590602001909291908035906020019092919080359060200190929190505050610a46565b005b3480156101f257600080fd5b506102296004803603604081101561020957600080fd5b810190808035906020019092919080359060200190929190505050610a67565b604051808573ffffffffffffffffffffffffffffffffffffffff1673ffffffffffffffffffffffffffffffffffffffff1681526020018481526020018381526020018273ffffffffffffffffffffffffffffffffffffffff1673ffffffffffffffffffffffffffffffffffffffff16815260200194505050505060405180910390f35b3480156102b857600080fd5b5061030f600480360360608110156102cf57600080fd5b81019080803573ffffffffffffffffffffffffffffffffffffffff1690602001909291908035906020019092919080359060200190929190505050610af3565b005b34801561031d57600080fd5b506103eb6004803603606081101561033457600080fd5b810190808035906020019064010000000081111561035157600080fd5b82018360208201111561036357600080fd5b8035906020019184600183028401116401000000008311171561038557600080fd5b91908080601f016020809104026020016040519081016040528093929190818152602001838380828437600081840152601f19601f8201169050808301925050505050505091929192908035906020019092919080359060200190929190505050610e71565b604051808273ffffffffffffffffffffffffffffffffffffffff1673ffffffffffffffffffffffffffffffffffffffff16815260200191505060405180910390f35b34801561043957600080fd5b506104666004803603602081101561045057600080fd5b8101908080359060200190929190505050610f42565b6040518082815260200191505060405180910390f35b34801561048857600080fd5b506104b56004803603602081101561049f57600080fd5b8101908080359060200190929190505050610f5a565b6040518082815260200191505060405180910390f35b60025481565b81600080858152602001908152602001600020805490501115156104f457600080fd5b60008060008581526020019081526020016000208381548110151561051557fe5b906000526020600020906004020190508181600201541015151561053857600080fd5b3481600101548260020154021015151561055157600080fd5b8060000160009054906101000a900473ffffffffffffffffffffffffffffffffffffffff1673ffffffffffffffffffffffffffffffffffffffff166323b872dd8260030160009054906101000a900473ffffffffffffffffffffffffffffffffffffffff1633856040518463ffffffff167c0100000000000000000000000000000000000000000000000000000000028152600401808473ffffffffffffffffffffffffffffffffffffffff1673ffffffffffffffffffffffffffffffffffffffff1681526020018373ffffffffffffffffffffffffffffffffffffffff1673ffffffffffffffffffffffffffffffffffffffff1681526020018281526020019350505050602060405180830381600087803b15801561067057600080fd5b505af1158015610684573d6000803e3d6000fd5b505050506040513d602081101561069a57600080fd5b810190808051906020019092919050505015156106b657600080fd5b8181600201600082825403925050819055508060030160009054906101000a900473ffffffffffffffffffffffffffffffffffffffff1673ffffffffffffffffffffffffffffffffffffffff166108fc60648360000160009054906101000a900473ffffffffffffffffffffffffffffffffffffffff1673ffffffffffffffffffffffffffffffffffffffff1663771a3a1d6040518163ffffffff167c010000000000000000000000000000000000000000000000000000000002815260040160206040518083038186803b15801561078e57600080fd5b505afa1580156107a2573d6000803e3d6000fd5b505050506040513d60208110156107b857600080fd5b81019080805190602001909291905050508115156107d257fe5b046001038360010154846002015402029081150290604051600060405180830381858888f1935050505015801561080d573d6000803e3d6000fd5b508060000160009054906101000a900473ffffffffffffffffffffffffffffffffffffffff1673ffffffffffffffffffffffffffffffffffffffff16638c72c54e6040518163ffffffff167c010000000000000000000000000000000000000000000000000000000002815260040160206040518083038186803b15801561089457600080fd5b505afa1580156108a8573d6000803e3d6000fd5b505050506040513d60208110156108be57600080fd5b810190808051906020019092919050505073ffffffffffffffffffffffffffffffffffffffff166108fc60648360000160009054906101000a900473ffffffffffffffffffffffffffffffffffffffff1673ffffffffffffffffffffffffffffffffffffffff1663771a3a1d6040518163ffffffff167c010000000000000000000000000000000000000000000000000000000002815260040160206040518083038186803b15801561097057600080fd5b505afa158015610984573d6000803e3d6000fd5b505050506040513d602081101561099a57600080fd5b81019080805190602001909291905050508460010154856002015402028115156109c057fe5b049081150290604051600060405180830381858888f193505050501580156109ec573d6000803e3d6000fd5b503373ffffffffffffffffffffffffffffffffffffffff166108fc826001015483600201540234039081150290604051600060405180830381858888f19350505050158015610a3f573d6000803e3d6000fd5b5050505050565b6000610a53858585610e71565b9050610a60818386610af3565b5050505050565b600060205281600052604060002081815481101515610a8257fe5b9060005260206000209060040201600091509150508060000160009054906101000a900473ffffffffffffffffffffffffffffffffffffffff16908060010154908060020154908060030160009054906101000a900473ffffffffffffffffffffffffffffffffffffffff16905084565b808373ffffffffffffffffffffffffffffffffffffffff166370a08231326040518263ffffffff167c0100000000000000000000000000000000000000000000000000000000028152600401808273ffffffffffffffffffffffffffffffffffffffff1673ffffffffffffffffffffffffffffffffffffffff16815260200191505060206040518083038186803b158015610b8d57600080fd5b505afa158015610ba1573d6000803e3d6000fd5b505050506040513d6020811015610bb757600080fd5b810190808051906020019092919050505010151515610bd557600080fd5b610bdd610f77565b6080604051908101604052808573ffffffffffffffffffffffffffffffffffffffff1681526020018481526020018381526020013273ffffffffffffffffffffffffffffffffffffffff1681525090506000808573ffffffffffffffffffffffffffffffffffffffff1663e912832d6040518163ffffffff167c010000000000000000000000000000000000000000000000000000000002815260040160206040518083038186803b158015610c9257600080fd5b505afa158015610ca6573d6000803e3d6000fd5b505050506040513d6020811015610cbc57600080fd5b81019080805190602001909291905050508152602001908152602001600020819080600181540180825580915050906001820390600052602060002090600402016000909192909190915060008201518160000160006101000a81548173ffffffffffffffffffffffffffffffffffffffff021916908373ffffffffffffffffffffffffffffffffffffffff160217905550602082015181600101556040820151816002015560608201518160030160006101000a81548173ffffffffffffffffffffffffffffffffffffffff021916908373ffffffffffffffffffffffffffffffffffffffff160217905550505050600160008573ffffffffffffffffffffffffffffffffffffffff1663e912832d6040518163ffffffff167c010000000000000000000000000000000000000000000000000000000002815260040160206040518083038186803b158015610e1257600080fd5b505afa158015610e26573d6000803e3d6000fd5b505050506040513d6020811015610e3c57600080fd5b810190808051906020019092919050505081526020019081526020016000206000815480929190600101919050555050505050565b600080846002548585610e82610fcc565b8080602001858152602001848152602001838152602001828103825286818151815260200191508051906020019080838360005b83811015610ed1578082015181840152602081019050610eb6565b50505050905090810190601f168015610efe5780820380516001836020036101000a031916815260200191505b5095505050505050604051809103906000f080158015610f22573d6000803e3d6000fd5b509050600260008154809291906001019190505550809150509392505050565b60016020528060005260406000206000915090505481565b600060016000838152602001908152602001600020549050919050565b608060405190810160405280600073ffffffffffffffffffffffffffffffffffffffff1681526020016000815260200160008152602001600073ffffffffffffffffffffffffffffffffffffffff1681525090565b6040516107c080610fdd8339019056fe60806040526040516107c03803806107c08339810180604052608081101561002657600080fd5b81019080805164010000000081111561003e57600080fd5b8281019050602081018481111561005457600080fd5b815185600182028301116401000000008211171561007157600080fd5b505092919060200180519060200190929190805190602001909291908051906020019092919050505083600090805190602001906100b0929190610176565b5082600181905550816002819055508060038190555032600460006101000a81548173ffffffffffffffffffffffffffffffffffffffff021916908373ffffffffffffffffffffffffffffffffffffffff1602179055508160056000600460009054906101000a900473ffffffffffffffffffffffffffffffffffffffff1673ffffffffffffffffffffffffffffffffffffffff1673ffffffffffffffffffffffffffffffffffffffff168152602001908152602001600020819055505050505061021b565b828054600181600116156101000203166002900490600052602060002090601f016020900481019282601f106101b757805160ff19168380011785556101e5565b828001600101855582156101e5579182015b828111156101e45782518255916020019190600101906101c9565b5b5090506101f291906101f6565b5090565b61021891905b808211156102145760008160009055506001016101fc565b5090565b90565b6105968061022a6000396000f3fe608060405260043610610083576000357c0100000000000000000000000000000000000000000000000000000000900463ffffffff16806318160ddd1461008857806323b872dd146100b35780634a79d50c1461014657806370a08231146101d6578063771a3a1d1461023b5780638c72c54e14610266578063e912832d146102bd575b600080fd5b34801561009457600080fd5b5061009d6102e8565b6040518082815260200191505060405180910390f35b3480156100bf57600080fd5b5061012c600480360360608110156100d657600080fd5b81019080803573ffffffffffffffffffffffffffffffffffffffff169060200190929190803573ffffffffffffffffffffffffffffffffffffffff169060200190929190803590602001909291905050506102ee565b604051808215151515815260200191505060405180910390f35b34801561015257600080fd5b5061015b610482565b6040518080602001828103825283818151815260200191508051906020019080838360005b8381101561019b578082015181840152602081019050610180565b50505050905090810190601f1680156101c85780820380516001836020036101000a031916815260200191505b509250505060405180910390f35b3480156101e257600080fd5b50610225600480360360208110156101f957600080fd5b81019080803573ffffffffffffffffffffffffffffffffffffffff169060200190929190505050610520565b6040518082815260200191505060405180910390f35b34801561024757600080fd5b50610250610538565b6040518082815260200191505060405180910390f35b34801561027257600080fd5b5061027b61053e565b604051808273ffffffffffffffffffffffffffffffffffffffff1673ffffffffffffffffffffffffffffffffffffffff16815260200191505060405180910390f35b3480156102c957600080fd5b506102d2610564565b6040518082815260200191505060405180910390f35b60025481565b600081600560008673ffffffffffffffffffffffffffffffffffffffff1673ffffffffffffffffffffffffffffffffffffffff168152602001908152602001600020541015151561033e57600080fd5b81600560008673ffffffffffffffffffffffffffffffffffffffff1673ffffffffffffffffffffffffffffffffffffffff1681526020019081526020016000206000828254039250508190555081600560008573ffffffffffffffffffffffffffffffffffffffff1673ffffffffffffffffffffffffffffffffffffffff168152602001908152602001600020600082825401925050819055507fddf252ad1be2c89b69c2b068fc378daa952ba7f163c4a11628f55a4df523b3ef848484604051808473ffffffffffffffffffffffffffffffffffffffff1673ffffffffffffffffffffffffffffffffffffffff1681526020018373ffffffffffffffffffffffffffffffffffffffff1673ffffffffffffffffffffffffffffffffffffffff168152602001828152602001935050505060405180910390a1600190509392505050565b60008054600181600116156101000203166002900480601f0160208091040260200160405190810160405280929190818152602001828054600181600116156101000203166002900480156105185780601f106104ed57610100808354040283529160200191610518565b820191906000526020600020905b8154815290600101906020018083116104fb57829003601f168201915b505050505081565b60056020528060005260406000206000915090505481565b60035481565b600460009054906101000a900473ffffffffffffffffffffffffffffffffffffffff1681565b6001548156fea165627a7a7230582051f1583f36c3e9ee81d09c5995502911e844c234269675d09694fd0513c04cc90029a165627a7a72305820b280c40a71096fb7c7e735752eab83fce85e853ad43c4a022bff65a361b6124d0029",
  "source": "\npragma solidity >=0.4.22 <0.6.0;\n\nimport \"./EBookToken.sol\";\n\ncontract Marketplace {\n\n  mapping(uint256 => Listing[]) public listings;\n  mapping(uint256 => uint256) public numListings;\n\n  function numListin(uint256 _x) public returns(uint256) {\n    return numListings[_x];\n  }\n\n  uint256 public numBooks;\n\n  struct Listing {\n    EBookToken tokenContract;\n    uint256 bookPrice;\n    uint256 numCopies;\n    address payable owner;\n  }\n\n  constructor() public payable {\n\n  }\n\n  function sell(EBookToken _tokenContract, uint256 _bookPrice, uint256 _numCopies) public {\n    require(_tokenContract.balanceOf(tx.origin) >= _numCopies);\n\n    Listing memory l = Listing(_tokenContract, _bookPrice, _numCopies, tx.origin);\n\n    listings[_tokenContract.bookId()].push(l);\n    numListings[_tokenContract.bookId()]++;\n\n  }\n\n  function buy(uint256 _bookId, uint _listingId, uint256 _numToBuy) public payable {\n    require(listings[_bookId].length > _listingId);\n\n    Listing storage l = listings[_bookId][_listingId];\n    require(l.numCopies >= _numToBuy);\n    require(l.numCopies * l.bookPrice >= msg.value);\n\n    // transfers the tokens\n    require(l.tokenContract.transferFrom(l.owner, msg.sender, _numToBuy));\n    l.numCopies -= _numToBuy;\n\n    l.owner.transfer(l.numCopies * l.bookPrice * (1 - l.tokenContract.taxRate() / 100));\n    l.tokenContract.publisher().transfer(l.numCopies * l.bookPrice * l.tokenContract.taxRate() / 100);\n    msg.sender.transfer(msg.value - l.numCopies * l.bookPrice);\n\n  }\n\n  function publish(string memory _title, uint256 _totalSupply, uint256 _taxRate) public returns (EBookToken b) {\n    EBookToken book = new EBookToken(_title, numBooks, _totalSupply, _taxRate);\n    numBooks++;\n    return book;\n  }\n\n  function publishAndSell(string memory _title, uint256 _totalSupply, uint256 _taxRate, uint256 _bookPrice) public {\n\n      EBookToken e = publish(_title, _totalSupply, _taxRate);\n\n      sell(e, _bookPrice, _totalSupply);\n\n  }\n\n\n\n}\n",
  "sourcePath": "/Users/timothyhuang/Desktop/ipsp19-textbook-rental/contracts/Marketplace.sol",
  "compiler": {
    "name": "solc",
    "version": "0.5.0+commit.1d4f565a.Emscripten.clang"
  },
  "schemaVersion": "3.0.1",
  "updatedAt": "2019-04-26T02:27:23.803Z",
  "devdoc": {
    "methods": {}
  },
  "userdoc": {
    "methods": {}
  }
}