{
  "contractName": "Marketplace",
  "abi": [
    {
      "constant": true,
      "inputs": [],
      "name": "numBooks",
      "outputs": [
        {
          "name": "",
          "type": "uint256"
        }
      ],
      "payable": false,
      "stateMutability": "view",
      "type": "function",
      "signature": "0x250caccc"
    },
    {
      "constant": true,
      "inputs": [
        {
          "name": "",
          "type": "uint256"
        },
        {
          "name": "",
          "type": "uint256"
        }
      ],
      "name": "listings",
      "outputs": [
        {
          "name": "title",
          "type": "string"
        },
        {
          "name": "tokenContract",
          "type": "address"
        },
        {
          "name": "bookPrice",
          "type": "uint256"
        },
        {
          "name": "numCopies",
          "type": "uint256"
        },
        {
          "name": "owner",
          "type": "address"
        },
        {
          "name": "bookId",
          "type": "uint256"
        },
        {
          "name": "listingId",
          "type": "uint256"
        },
        {
          "name": "sold",
          "type": "bool"
        }
      ],
      "payable": false,
      "stateMutability": "view",
      "type": "function",
      "signature": "0x4d3084d3"
    },
    {
      "constant": true,
      "inputs": [
        {
          "name": "",
          "type": "uint256"
        }
      ],
      "name": "numListings",
      "outputs": [
        {
          "name": "",
          "type": "uint256"
        }
      ],
      "payable": false,
      "stateMutability": "view",
      "type": "function",
      "signature": "0x6dd365c3"
    },
    {
      "anonymous": false,
      "inputs": [
        {
          "indexed": false,
          "name": "_title",
          "type": "string"
        },
        {
          "indexed": false,
          "name": "_bookPrice",
          "type": "uint256"
        },
        {
          "indexed": false,
          "name": "_numCopies",
          "type": "uint256"
        }
      ],
      "name": "Buy",
      "type": "event",
      "signature": "0x183d4cca0cae81103b950f41b719472f8e4eaa06915a46d428a2eecfd06e959e"
    },
    {
      "anonymous": false,
      "inputs": [
        {
          "indexed": false,
          "name": "_title",
          "type": "string"
        },
        {
          "indexed": false,
          "name": "_totalSupply",
          "type": "uint256"
        },
        {
          "indexed": false,
          "name": "_bookPrice",
          "type": "uint256"
        }
      ],
      "name": "PublishAndSell",
      "type": "event",
      "signature": "0x6fbe6e6745470f2026322b951d01571af07f815fff639e0ea1498eb32a5ff1ac"
    },
    {
      "constant": true,
      "inputs": [
        {
          "name": "_bookId",
          "type": "uint256"
        }
      ],
      "name": "balanceOf",
      "outputs": [
        {
          "name": "",
          "type": "uint256"
        }
      ],
      "payable": false,
      "stateMutability": "view",
      "type": "function",
      "signature": "0x9cc7f708"
    },
    {
      "constant": false,
      "inputs": [
        {
          "name": "_tokenContract",
          "type": "address"
        },
        {
          "name": "_bookPrice",
          "type": "uint256"
        },
        {
          "name": "_numCopies",
          "type": "uint256"
        }
      ],
      "name": "sell",
      "outputs": [],
      "payable": false,
      "stateMutability": "nonpayable",
      "type": "function",
      "signature": "0x6a272462"
    },
    {
      "constant": false,
      "inputs": [
        {
          "name": "_bookId",
          "type": "uint256"
        },
        {
          "name": "_listingId",
          "type": "uint256"
        },
        {
          "name": "_numToBuy",
          "type": "uint256"
        }
      ],
      "name": "buy",
      "outputs": [],
      "payable": true,
      "stateMutability": "payable",
      "type": "function",
      "signature": "0x40993b26"
    },
    {
      "constant": false,
      "inputs": [
        {
          "name": "_title",
          "type": "string"
        },
        {
          "name": "_totalSupply",
          "type": "uint256"
        },
        {
          "name": "_taxRate",
          "type": "uint256"
        }
      ],
      "name": "publish",
      "outputs": [
        {
          "name": "b",
          "type": "address"
        }
      ],
      "payable": false,
      "stateMutability": "nonpayable",
      "type": "function",
      "signature": "0x6a94b66a"
    },
    {
      "constant": false,
      "inputs": [
        {
          "name": "_title",
          "type": "string"
        },
        {
          "name": "_totalSupply",
          "type": "uint256"
        },
        {
          "name": "_taxRate",
          "type": "uint256"
        },
        {
          "name": "_bookPrice",
          "type": "uint256"
        }
      ],
      "name": "publishAndSell",
      "outputs": [],
      "payable": false,
      "stateMutability": "nonpayable",
      "type": "function",
      "signature": "0x40bddea5"
    }
  ],
  "bytecode": "0x608060405234801561001057600080fd5b50612136806100206000396000f3fe60806040526004361062000097576000357c0100000000000000000000000000000000000000000000000000000000900463ffffffff168063250caccc146200009c57806340993b2614620000ca57806340bddea5146200010f5780634d3084d314620001fc5780636a272462146200034e5780636a94b66a14620003b75780636dd365c314620004da5780639cc7f708146200052d575b600080fd5b348015620000a957600080fd5b50620000b462000580565b6040518082815260200191505060405180910390f35b6200010d60048036036060811015620000e257600080fd5b8101908080359060200190929190803590602001909291908035906020019092919050505062000586565b005b3480156200011c57600080fd5b50620001fa600480360360808110156200013557600080fd5b81019080803590602001906401000000008111156200015357600080fd5b8201836020820111156200016657600080fd5b803590602001918460018302840111640100000000831117156200018957600080fd5b91908080601f016020809104026020016040519081016040528093929190818152602001838380828437600081840152601f19601f82011690508083019250505050505050919291929080359060200190929190803590602001909291908035906020019092919050505062000c01565b005b3480156200020957600080fd5b5062000243600480360360408110156200022257600080fd5b81019080803590602001909291908035906020019092919050505062000cd5565b60405180806020018973ffffffffffffffffffffffffffffffffffffffff1673ffffffffffffffffffffffffffffffffffffffff1681526020018881526020018781526020018673ffffffffffffffffffffffffffffffffffffffff1673ffffffffffffffffffffffffffffffffffffffff1681526020018581526020018481526020018315151515815260200182810382528a818151815260200191508051906020019080838360005b838110156200030b578082015181840152602081019050620002ee565b50505050905090810190601f168015620003395780820380516001836020036101000a031916815260200191505b50995050505050505050505060405180910390f35b3480156200035b57600080fd5b50620003b5600480360360608110156200037457600080fd5b81019080803573ffffffffffffffffffffffffffffffffffffffff169060200190929190803590602001909291908035906020019092919050505062000e23565b005b348015620003c457600080fd5b506200049860048036036060811015620003dd57600080fd5b8101908080359060200190640100000000811115620003fb57600080fd5b8201836020820111156200040e57600080fd5b803590602001918460018302840111640100000000831117156200043157600080fd5b91908080601f016020809104026020016040519081016040528093929190818152602001838380828437600081840152601f19601f820116905080830192505050505050509192919290803590602001909291908035906020019092919050505062001465565b604051808273ffffffffffffffffffffffffffffffffffffffff1673ffffffffffffffffffffffffffffffffffffffff16815260200191505060405180910390f35b348015620004e757600080fd5b5062000517600480360360208110156200050057600080fd5b81019080803590602001909291905050506200153c565b6040518082815260200191505060405180910390f35b3480156200053a57600080fd5b506200056a600480360360208110156200055357600080fd5b810190808035906020019092919050505062001554565b6040518082815260200191505060405180910390f35b60025481565b8160008085815260200190815260200160002080549050111515620005aa57600080fd5b600080600085815260200190815260200160002083815481101515620005cc57fe5b9060005260206000209060080201905081816003015410151515620005f057600080fd5b3481600201548302111515156200060657600080fd5b8060010160009054906101000a900473ffffffffffffffffffffffffffffffffffffffff1673ffffffffffffffffffffffffffffffffffffffff166323b872dd8260040160009054906101000a900473ffffffffffffffffffffffffffffffffffffffff1633856040518463ffffffff167c0100000000000000000000000000000000000000000000000000000000028152600401808473ffffffffffffffffffffffffffffffffffffffff1673ffffffffffffffffffffffffffffffffffffffff1681526020018373ffffffffffffffffffffffffffffffffffffffff1673ffffffffffffffffffffffffffffffffffffffff1681526020018281526020019350505050602060405180830381600087803b1580156200072657600080fd5b505af11580156200073b573d6000803e3d6000fd5b505050506040513d60208110156200075257600080fd5b810190808051906020019092919050505015156200076f57600080fd5b818160030160008282540392505081905550600081600301541415620007ad5760018160070160006101000a81548160ff0219169083151502179055505b8060040160009054906101000a900473ffffffffffffffffffffffffffffffffffffffff1673ffffffffffffffffffffffffffffffffffffffff166108fc60648360010160009054906101000a900473ffffffffffffffffffffffffffffffffffffffff1673ffffffffffffffffffffffffffffffffffffffff1663771a3a1d6040518163ffffffff167c010000000000000000000000000000000000000000000000000000000002815260040160206040518083038186803b1580156200087457600080fd5b505afa15801562000889573d6000803e3d6000fd5b505050506040513d6020811015620008a057600080fd5b81019080805190602001909291905050506064038460020154860202811515620008c657fe5b049081150290604051600060405180830381858888f19350505050158015620008f3573d6000803e3d6000fd5b508060010160009054906101000a900473ffffffffffffffffffffffffffffffffffffffff1673ffffffffffffffffffffffffffffffffffffffff16638c72c54e6040518163ffffffff167c010000000000000000000000000000000000000000000000000000000002815260040160206040518083038186803b1580156200097b57600080fd5b505afa15801562000990573d6000803e3d6000fd5b505050506040513d6020811015620009a757600080fd5b810190808051906020019092919050505073ffffffffffffffffffffffffffffffffffffffff166108fc60648360010160009054906101000a900473ffffffffffffffffffffffffffffffffffffffff1673ffffffffffffffffffffffffffffffffffffffff1663771a3a1d6040518163ffffffff167c010000000000000000000000000000000000000000000000000000000002815260040160206040518083038186803b15801562000a5a57600080fd5b505afa15801562000a6f573d6000803e3d6000fd5b505050506040513d602081101562000a8657600080fd5b8101908080519060200190929190505050846002015486020281151562000aa957fe5b049081150290604051600060405180830381858888f1935050505015801562000ad6573d6000803e3d6000fd5b503373ffffffffffffffffffffffffffffffffffffffff166108fc8260020154840234039081150290604051600060405180830381858888f1935050505015801562000b26573d6000803e3d6000fd5b507f183d4cca0cae81103b950f41b719472f8e4eaa06915a46d428a2eecfd06e959e81600001826002015484604051808060200184815260200183815260200182810382528581815460018160011615610100020316600290048152602001915080546001816001161561010002031660029004801562000beb5780601f1062000bbf5761010080835404028352916020019162000beb565b820191906000526020600020905b81548152906001019060200180831162000bcd57829003601f168201915b505094505050505060405180910390a150505050565b600062000c1085858562001465565b905062000c1f81838662000e23565b7f6fbe6e6745470f2026322b951d01571af07f815fff639e0ea1498eb32a5ff1ac8585846040518080602001848152602001838152602001828103825285818151815260200191508051906020019080838360005b8381101562000c9157808201518184015260208101905062000c74565b50505050905090810190601f16801562000cbf5780820380516001836020036101000a031916815260200191505b5094505050505060405180910390a15050505050565b60006020528160005260406000208181548110151562000cf157fe5b906000526020600020906008020160009150915050806000018054600181600116156101000203166002900480601f01602080910402602001604051908101604052809291908181526020018280546001816001161561010002031660029004801562000da25780601f1062000d765761010080835404028352916020019162000da2565b820191906000526020600020905b81548152906001019060200180831162000d8457829003601f168201915b5050505050908060010160009054906101000a900473ffffffffffffffffffffffffffffffffffffffff16908060020154908060030154908060040160009054906101000a900473ffffffffffffffffffffffffffffffffffffffff16908060050154908060060154908060070160009054906101000a900460ff16905088565b808373ffffffffffffffffffffffffffffffffffffffff166370a08231326040518263ffffffff167c0100000000000000000000000000000000000000000000000000000000028152600401808273ffffffffffffffffffffffffffffffffffffffff1673ffffffffffffffffffffffffffffffffffffffff16815260200191505060206040518083038186803b15801562000ebe57600080fd5b505afa15801562000ed3573d6000803e3d6000fd5b505050506040513d602081101562000eea57600080fd5b81019080805190602001909291905050501015151562000f0957600080fd5b62000f1362001816565b610100604051908101604052808573ffffffffffffffffffffffffffffffffffffffff16634a79d50c6040518163ffffffff167c010000000000000000000000000000000000000000000000000000000002815260040160006040518083038186803b15801562000f8357600080fd5b505afa15801562000f98573d6000803e3d6000fd5b505050506040513d6000823e3d601f19601f82011682018060405250602081101562000fc357600080fd5b81019080805164010000000081111562000fdc57600080fd5b8281019050602081018481111562000ff357600080fd5b81518560018202830111640100000000821117156200101157600080fd5b505092919050505081526020018573ffffffffffffffffffffffffffffffffffffffff1681526020018481526020018381526020013273ffffffffffffffffffffffffffffffffffffffff1681526020018573ffffffffffffffffffffffffffffffffffffffff1663e912832d6040518163ffffffff167c010000000000000000000000000000000000000000000000000000000002815260040160206040518083038186803b158015620010c557600080fd5b505afa158015620010da573d6000803e3d6000fd5b505050506040513d6020811015620010f157600080fd5b81019080805190602001909291905050508152602001600160008773ffffffffffffffffffffffffffffffffffffffff1663e912832d6040518163ffffffff167c010000000000000000000000000000000000000000000000000000000002815260040160206040518083038186803b1580156200116e57600080fd5b505afa15801562001183573d6000803e3d6000fd5b505050506040513d60208110156200119a57600080fd5b810190808051906020019092919050505081526020019081526020016000205481526020016000151581525090506000808573ffffffffffffffffffffffffffffffffffffffff1663e912832d6040518163ffffffff167c010000000000000000000000000000000000000000000000000000000002815260040160206040518083038186803b1580156200122e57600080fd5b505afa15801562001243573d6000803e3d6000fd5b505050506040513d60208110156200125a57600080fd5b8101908080519060200190929190505050815260200190815260200160002081908060018154018082558091505090600182039060005260206000209060080201600090919290919091506000820151816000019080519060200190620012c39291906200188a565b5060208201518160010160006101000a81548173ffffffffffffffffffffffffffffffffffffffff021916908373ffffffffffffffffffffffffffffffffffffffff160217905550604082015181600201556060820151816003015560808201518160040160006101000a81548173ffffffffffffffffffffffffffffffffffffffff021916908373ffffffffffffffffffffffffffffffffffffffff16021790555060a0820151816005015560c0820151816006015560e08201518160070160006101000a81548160ff021916908315150217905550505050600160008573ffffffffffffffffffffffffffffffffffffffff1663e912832d6040518163ffffffff167c010000000000000000000000000000000000000000000000000000000002815260040160206040518083038186803b1580156200140457600080fd5b505afa15801562001419573d6000803e3d6000fd5b505050506040513d60208110156200143057600080fd5b810190808051906020019092919050505081526020019081526020016000206000815480929190600101919050555050505050565b6000808460025485856200147862001911565b8080602001858152602001848152602001838152602001828103825286818151815260200191508051906020019080838360005b83811015620014c9578082015181840152602081019050620014ac565b50505050905090810190601f168015620014f75780820380516001836020036101000a031916815260200191505b5095505050505050604051809103906000f0801580156200151c573d6000803e3d6000fd5b509050600260008154809291906001019190505550809150509392505050565b60016020528060005260406000206000915090505481565b60006200156062001816565b60008084815260200190815260200160002060008154811015156200158157fe5b90600052602060002090600802016101006040519081016040529081600082018054600181600116156101000203166002900480601f016020809104026020016040519081016040528092919081815260200182805460018160011615610100020316600290048015620016395780601f106200160d5761010080835404028352916020019162001639565b820191906000526020600020905b8154815290600101906020018083116200161b57829003601f168201915b505050505081526020016001820160009054906101000a900473ffffffffffffffffffffffffffffffffffffffff1673ffffffffffffffffffffffffffffffffffffffff1673ffffffffffffffffffffffffffffffffffffffff16815260200160028201548152602001600382015481526020016004820160009054906101000a900473ffffffffffffffffffffffffffffffffffffffff1673ffffffffffffffffffffffffffffffffffffffff1673ffffffffffffffffffffffffffffffffffffffff16815260200160058201548152602001600682015481526020016007820160009054906101000a900460ff1615151515815250509050806020015173ffffffffffffffffffffffffffffffffffffffff166370a08231326040518263ffffffff167c0100000000000000000000000000000000000000000000000000000000028152600401808273ffffffffffffffffffffffffffffffffffffffff1673ffffffffffffffffffffffffffffffffffffffff16815260200191505060206040518083038186803b158015620017d157600080fd5b505afa158015620017e6573d6000803e3d6000fd5b505050506040513d6020811015620017fd57600080fd5b8101908080519060200190929190505050915050919050565b6101006040519081016040528060608152602001600073ffffffffffffffffffffffffffffffffffffffff1681526020016000815260200160008152602001600073ffffffffffffffffffffffffffffffffffffffff16815260200160008152602001600081526020016000151581525090565b828054600181600116156101000203166002900490600052602060002090601f016020900481019282601f10620018cd57805160ff1916838001178555620018fe565b82800160010185558215620018fe579182015b82811115620018fd578251825591602001919060010190620018e0565b5b5090506200190d919062001922565b5090565b6040516107c0806200194b83390190565b6200194791905b808211156200194357600081600090555060010162001929565b5090565b9056fe60806040526040516107c03803806107c08339810180604052608081101561002657600080fd5b81019080805164010000000081111561003e57600080fd5b8281019050602081018481111561005457600080fd5b815185600182028301116401000000008211171561007157600080fd5b505092919060200180519060200190929190805190602001909291908051906020019092919050505083600090805190602001906100b0929190610176565b5082600181905550816002819055508060038190555032600460006101000a81548173ffffffffffffffffffffffffffffffffffffffff021916908373ffffffffffffffffffffffffffffffffffffffff1602179055508160056000600460009054906101000a900473ffffffffffffffffffffffffffffffffffffffff1673ffffffffffffffffffffffffffffffffffffffff1673ffffffffffffffffffffffffffffffffffffffff168152602001908152602001600020819055505050505061021b565b828054600181600116156101000203166002900490600052602060002090601f016020900481019282601f106101b757805160ff19168380011785556101e5565b828001600101855582156101e5579182015b828111156101e45782518255916020019190600101906101c9565b5b5090506101f291906101f6565b5090565b61021891905b808211156102145760008160009055506001016101fc565b5090565b90565b6105968061022a6000396000f3fe608060405260043610610083576000357c0100000000000000000000000000000000000000000000000000000000900463ffffffff16806318160ddd1461008857806323b872dd146100b35780634a79d50c1461014657806370a08231146101d6578063771a3a1d1461023b5780638c72c54e14610266578063e912832d146102bd575b600080fd5b34801561009457600080fd5b5061009d6102e8565b6040518082815260200191505060405180910390f35b3480156100bf57600080fd5b5061012c600480360360608110156100d657600080fd5b81019080803573ffffffffffffffffffffffffffffffffffffffff169060200190929190803573ffffffffffffffffffffffffffffffffffffffff169060200190929190803590602001909291905050506102ee565b604051808215151515815260200191505060405180910390f35b34801561015257600080fd5b5061015b610482565b6040518080602001828103825283818151815260200191508051906020019080838360005b8381101561019b578082015181840152602081019050610180565b50505050905090810190601f1680156101c85780820380516001836020036101000a031916815260200191505b509250505060405180910390f35b3480156101e257600080fd5b50610225600480360360208110156101f957600080fd5b81019080803573ffffffffffffffffffffffffffffffffffffffff169060200190929190505050610520565b6040518082815260200191505060405180910390f35b34801561024757600080fd5b50610250610538565b6040518082815260200191505060405180910390f35b34801561027257600080fd5b5061027b61053e565b604051808273ffffffffffffffffffffffffffffffffffffffff1673ffffffffffffffffffffffffffffffffffffffff16815260200191505060405180910390f35b3480156102c957600080fd5b506102d2610564565b6040518082815260200191505060405180910390f35b60025481565b600081600560008673ffffffffffffffffffffffffffffffffffffffff1673ffffffffffffffffffffffffffffffffffffffff168152602001908152602001600020541015151561033e57600080fd5b81600560008673ffffffffffffffffffffffffffffffffffffffff1673ffffffffffffffffffffffffffffffffffffffff1681526020019081526020016000206000828254039250508190555081600560008573ffffffffffffffffffffffffffffffffffffffff1673ffffffffffffffffffffffffffffffffffffffff168152602001908152602001600020600082825401925050819055507fddf252ad1be2c89b69c2b068fc378daa952ba7f163c4a11628f55a4df523b3ef848484604051808473ffffffffffffffffffffffffffffffffffffffff1673ffffffffffffffffffffffffffffffffffffffff1681526020018373ffffffffffffffffffffffffffffffffffffffff1673ffffffffffffffffffffffffffffffffffffffff168152602001828152602001935050505060405180910390a1600190509392505050565b60008054600181600116156101000203166002900480601f0160208091040260200160405190810160405280929190818152602001828054600181600116156101000203166002900480156105185780601f106104ed57610100808354040283529160200191610518565b820191906000526020600020905b8154815290600101906020018083116104fb57829003601f168201915b505050505081565b60056020528060005260406000206000915090505481565b60035481565b600460009054906101000a900473ffffffffffffffffffffffffffffffffffffffff1681565b6001548156fea165627a7a7230582051f1583f36c3e9ee81d09c5995502911e844c234269675d09694fd0513c04cc90029a165627a7a72305820db9d76c1c1f6bd03a644c25a7a6efdd04baacc9307ab2742a65c3bcfeea8fee80029",
  "source": "\npragma solidity >=0.4.22 <0.6.0;\n\nimport \"./EBookToken.sol\";\n\ncontract Marketplace {\n\n  mapping(uint256 => Listing[]) public listings;\n  mapping(uint256 => uint256) public numListings;\n\n  uint256 public numBooks;\n\n  struct Listing {\n    string title;\n    EBookToken tokenContract;\n    uint256 bookPrice;\n    uint256 numCopies;\n    address payable owner;\n    uint256 bookId;\n    uint256 listingId;\n    bool sold;\n  }\n\n  event Buy(\n    string _title,\n    uint256 _bookPrice,\n    uint256 _numCopies\n  );\n\n  event PublishAndSell(\n    string _title,\n    uint256 _totalSupply,\n    uint256 _bookPrice\n  );\n\n\n  function balanceOf(uint256 _bookId) public view returns (uint256) {\n    //require(listings[_bookId].length > 0);\n    Listing memory l = listings[_bookId][0];\n    return l.tokenContract.balanceOf(tx.origin);\n  }\n\n\n  function sell(EBookToken _tokenContract, uint256 _bookPrice, uint256 _numCopies) public {\n    require(_tokenContract.balanceOf(tx.origin) >= _numCopies);\n\n    Listing memory l = Listing(_tokenContract.title(), _tokenContract, _bookPrice, _numCopies, tx.origin, _tokenContract.bookId(), numListings[_tokenContract.bookId()], false);\n\n\n    listings[_tokenContract.bookId()].push(l);\n    numListings[_tokenContract.bookId()]++;\n\n  }\n\n  function buy(uint256 _bookId, uint _listingId, uint256 _numToBuy) public payable {\n    require(listings[_bookId].length > _listingId);\n\n    Listing storage l = listings[_bookId][_listingId];\n    require(l.numCopies >= _numToBuy);\n    require(_numToBuy * l.bookPrice <= msg.value);\n\n    // transfers the tokens\n    require(l.tokenContract.transferFrom(l.owner, msg.sender, _numToBuy));\n    l.numCopies -= _numToBuy;\n\n    if(l.numCopies == 0) {\n      l.sold = true;\n    }\n\n    l.owner.transfer(_numToBuy * l.bookPrice * (100 - l.tokenContract.taxRate()) / 100);\n    l.tokenContract.publisher().transfer(_numToBuy * l.bookPrice * l.tokenContract.taxRate() / 100);\n    msg.sender.transfer(msg.value - _numToBuy * l.bookPrice);\n\n    emit Buy(l.title, l.bookPrice, _numToBuy);\n\n  }\n\n  function publish(string memory _title, uint256 _totalSupply, uint256 _taxRate) public returns (EBookToken b) {\n    EBookToken book = new EBookToken(_title, numBooks, _totalSupply, _taxRate);\n    numBooks++;\n    return book;\n  }\n\n  function publishAndSell(string memory _title, uint256 _totalSupply, uint256 _taxRate, uint256 _bookPrice) public {\n\n      EBookToken e = publish(_title, _totalSupply, _taxRate);\n\n      sell(e, _bookPrice, _totalSupply);\n\n      emit PublishAndSell(_title, _totalSupply, _bookPrice);\n\n  }\n\n\n\n}\n",
  "sourcePath": "/Users/timothyhuang/Desktop/ipsp19-textbook-rental/contracts/Marketplace.sol",
  "compiler": {
    "name": "solc",
    "version": "0.5.0+commit.1d4f565a.Emscripten.clang"
  },
  "schemaVersion": "3.0.1",
  "updatedAt": "2019-05-03T03:13:46.608Z",
  "devdoc": {
    "methods": {}
  },
  "userdoc": {
    "methods": {}
  }
}