{
  "contractName": "Marketplace",
  "abi": [
    {
      "constant": true,
      "inputs": [],
      "name": "numBooks",
      "outputs": [
        {
          "name": "",
          "type": "uint256"
        }
      ],
      "payable": false,
      "stateMutability": "view",
      "type": "function",
      "signature": "0x250caccc"
    },
    {
      "constant": true,
      "inputs": [
        {
          "name": "",
          "type": "uint256"
        },
        {
          "name": "",
          "type": "uint256"
        }
      ],
      "name": "listings",
      "outputs": [
        {
          "name": "title",
          "type": "string"
        },
        {
          "name": "tokenContract",
          "type": "address"
        },
        {
          "name": "bookPrice",
          "type": "uint256"
        },
        {
          "name": "numCopies",
          "type": "uint256"
        },
        {
          "name": "owner",
          "type": "address"
        },
        {
          "name": "bookId",
          "type": "uint256"
        },
        {
          "name": "listingId",
          "type": "uint256"
        },
        {
          "name": "sold",
          "type": "bool"
        }
      ],
      "payable": false,
      "stateMutability": "view",
      "type": "function",
      "signature": "0x4d3084d3"
    },
    {
      "constant": true,
      "inputs": [
        {
          "name": "",
          "type": "uint256"
        }
      ],
      "name": "numListings",
      "outputs": [
        {
          "name": "",
          "type": "uint256"
        }
      ],
      "payable": false,
      "stateMutability": "view",
      "type": "function",
      "signature": "0x6dd365c3"
    },
    {
      "inputs": [],
      "payable": true,
      "stateMutability": "payable",
      "type": "constructor",
      "signature": "constructor"
    },
    {
      "constant": false,
      "inputs": [
        {
          "name": "_tokenContract",
          "type": "address"
        },
        {
          "name": "_bookPrice",
          "type": "uint256"
        },
        {
          "name": "_numCopies",
          "type": "uint256"
        }
      ],
      "name": "sell",
      "outputs": [],
      "payable": false,
      "stateMutability": "nonpayable",
      "type": "function",
      "signature": "0x6a272462"
    },
    {
      "constant": false,
      "inputs": [
        {
          "name": "_bookId",
          "type": "uint256"
        },
        {
          "name": "_listingId",
          "type": "uint256"
        },
        {
          "name": "_numToBuy",
          "type": "uint256"
        }
      ],
      "name": "buy",
      "outputs": [],
      "payable": true,
      "stateMutability": "payable",
      "type": "function",
      "signature": "0x40993b26"
    },
    {
      "constant": false,
      "inputs": [
        {
          "name": "_title",
          "type": "string"
        },
        {
          "name": "_totalSupply",
          "type": "uint256"
        },
        {
          "name": "_taxRate",
          "type": "uint256"
        }
      ],
      "name": "publish",
      "outputs": [
        {
          "name": "b",
          "type": "address"
        }
      ],
      "payable": false,
      "stateMutability": "nonpayable",
      "type": "function",
      "signature": "0x6a94b66a"
    },
    {
      "constant": false,
      "inputs": [
        {
          "name": "_title",
          "type": "string"
        },
        {
          "name": "_totalSupply",
          "type": "uint256"
        },
        {
          "name": "_taxRate",
          "type": "uint256"
        },
        {
          "name": "_bookPrice",
          "type": "uint256"
        }
      ],
      "name": "publishAndSell",
      "outputs": [],
      "payable": false,
      "stateMutability": "nonpayable",
      "type": "function",
      "signature": "0x40bddea5"
    }
  ],
  "bytecode": "0x6080604052611c92806100136000396000f3fe6080604052600436106200008b576000357c0100000000000000000000000000000000000000000000000000000000900463ffffffff168063250caccc146200009057806340993b2614620000be57806340bddea514620001035780634d3084d314620001f05780636a27246214620003425780636a94b66a14620003ab5780636dd365c314620004ce575b600080fd5b3480156200009d57600080fd5b50620000a862000521565b6040518082815260200191505060405180910390f35b6200010160048036036060811015620000d657600080fd5b8101908080359060200190929190803590602001909291908035906020019092919050505062000527565b005b3480156200011057600080fd5b50620001ee600480360360808110156200012957600080fd5b81019080803590602001906401000000008111156200014757600080fd5b8201836020820111156200015a57600080fd5b803590602001918460018302840111640100000000831117156200017d57600080fd5b91908080601f016020809104026020016040519081016040528093929190818152602001838380828437600081840152601f19601f82011690508083019250505050505050919291929080359060200190929190803590602001909291908035906020019092919050505062000ace565b005b348015620001fd57600080fd5b5062000237600480360360408110156200021657600080fd5b81019080803590602001909291908035906020019092919050505062000af3565b60405180806020018973ffffffffffffffffffffffffffffffffffffffff1673ffffffffffffffffffffffffffffffffffffffff1681526020018881526020018781526020018673ffffffffffffffffffffffffffffffffffffffff1673ffffffffffffffffffffffffffffffffffffffff1681526020018581526020018481526020018315151515815260200182810382528a818151815260200191508051906020019080838360005b83811015620002ff578082015181840152602081019050620002e2565b50505050905090810190601f1680156200032d5780820380516001836020036101000a031916815260200191505b50995050505050505050505060405180910390f35b3480156200034f57600080fd5b50620003a9600480360360608110156200036857600080fd5b81019080803573ffffffffffffffffffffffffffffffffffffffff169060200190929190803590602001909291908035906020019092919050505062000c41565b005b348015620003b857600080fd5b506200048c60048036036060811015620003d157600080fd5b8101908080359060200190640100000000811115620003ef57600080fd5b8201836020820111156200040257600080fd5b803590602001918460018302840111640100000000831117156200042557600080fd5b91908080601f016020809104026020016040519081016040528093929190818152602001838380828437600081840152601f19601f820116905080830192505050505050509192919290803590602001909291908035906020019092919050505062001283565b604051808273ffffffffffffffffffffffffffffffffffffffff1673ffffffffffffffffffffffffffffffffffffffff16815260200191505060405180910390f35b348015620004db57600080fd5b506200050b60048036036020811015620004f457600080fd5b81019080803590602001909291905050506200135a565b6040518082815260200191505060405180910390f35b60025481565b81600080858152602001908152602001600020805490501115156200054b57600080fd5b6000806000858152602001908152602001600020838154811015156200056d57fe5b90600052602060002090600802019050818160030154101515156200059157600080fd5b348160020154830211151515620005a757600080fd5b8060010160009054906101000a900473ffffffffffffffffffffffffffffffffffffffff1673ffffffffffffffffffffffffffffffffffffffff166323b872dd8260040160009054906101000a900473ffffffffffffffffffffffffffffffffffffffff1633856040518463ffffffff167c0100000000000000000000000000000000000000000000000000000000028152600401808473ffffffffffffffffffffffffffffffffffffffff1673ffffffffffffffffffffffffffffffffffffffff1681526020018373ffffffffffffffffffffffffffffffffffffffff1673ffffffffffffffffffffffffffffffffffffffff1681526020018281526020019350505050602060405180830381600087803b158015620006c757600080fd5b505af1158015620006dc573d6000803e3d6000fd5b505050506040513d6020811015620006f357600080fd5b810190808051906020019092919050505015156200071057600080fd5b8181600301600082825403925050819055506000816003015414156200074e5760018160070160006101000a81548160ff0219169083151502179055505b8060040160009054906101000a900473ffffffffffffffffffffffffffffffffffffffff1673ffffffffffffffffffffffffffffffffffffffff166108fc60648360010160009054906101000a900473ffffffffffffffffffffffffffffffffffffffff1673ffffffffffffffffffffffffffffffffffffffff1663771a3a1d6040518163ffffffff167c010000000000000000000000000000000000000000000000000000000002815260040160206040518083038186803b1580156200081557600080fd5b505afa1580156200082a573d6000803e3d6000fd5b505050506040513d60208110156200084157600080fd5b810190808051906020019092919050505060640384600201548602028115156200086757fe5b049081150290604051600060405180830381858888f1935050505015801562000894573d6000803e3d6000fd5b508060010160009054906101000a900473ffffffffffffffffffffffffffffffffffffffff1673ffffffffffffffffffffffffffffffffffffffff16638c72c54e6040518163ffffffff167c010000000000000000000000000000000000000000000000000000000002815260040160206040518083038186803b1580156200091c57600080fd5b505afa15801562000931573d6000803e3d6000fd5b505050506040513d60208110156200094857600080fd5b810190808051906020019092919050505073ffffffffffffffffffffffffffffffffffffffff166108fc60648360010160009054906101000a900473ffffffffffffffffffffffffffffffffffffffff1673ffffffffffffffffffffffffffffffffffffffff1663771a3a1d6040518163ffffffff167c010000000000000000000000000000000000000000000000000000000002815260040160206040518083038186803b158015620009fb57600080fd5b505afa15801562000a10573d6000803e3d6000fd5b505050506040513d602081101562000a2757600080fd5b8101908080519060200190929190505050846002015486020281151562000a4a57fe5b049081150290604051600060405180830381858888f1935050505015801562000a77573d6000803e3d6000fd5b503373ffffffffffffffffffffffffffffffffffffffff166108fc8260020154840234039081150290604051600060405180830381858888f1935050505015801562000ac7573d6000803e3d6000fd5b5050505050565b600062000add85858562001283565b905062000aec81838662000c41565b5050505050565b60006020528160005260406000208181548110151562000b0f57fe5b906000526020600020906008020160009150915050806000018054600181600116156101000203166002900480601f01602080910402602001604051908101604052809291908181526020018280546001816001161561010002031660029004801562000bc05780601f1062000b945761010080835404028352916020019162000bc0565b820191906000526020600020905b81548152906001019060200180831162000ba257829003601f168201915b5050505050908060010160009054906101000a900473ffffffffffffffffffffffffffffffffffffffff16908060020154908060030154908060040160009054906101000a900473ffffffffffffffffffffffffffffffffffffffff16908060050154908060060154908060070160009054906101000a900460ff16905088565b808373ffffffffffffffffffffffffffffffffffffffff166370a08231326040518263ffffffff167c0100000000000000000000000000000000000000000000000000000000028152600401808273ffffffffffffffffffffffffffffffffffffffff1673ffffffffffffffffffffffffffffffffffffffff16815260200191505060206040518083038186803b15801562000cdc57600080fd5b505afa15801562000cf1573d6000803e3d6000fd5b505050506040513d602081101562000d0857600080fd5b81019080805190602001909291905050501015151562000d2757600080fd5b62000d3162001372565b610100604051908101604052808573ffffffffffffffffffffffffffffffffffffffff16634a79d50c6040518163ffffffff167c010000000000000000000000000000000000000000000000000000000002815260040160006040518083038186803b15801562000da157600080fd5b505afa15801562000db6573d6000803e3d6000fd5b505050506040513d6000823e3d601f19601f82011682018060405250602081101562000de157600080fd5b81019080805164010000000081111562000dfa57600080fd5b8281019050602081018481111562000e1157600080fd5b815185600182028301116401000000008211171562000e2f57600080fd5b505092919050505081526020018573ffffffffffffffffffffffffffffffffffffffff1681526020018481526020018381526020013273ffffffffffffffffffffffffffffffffffffffff1681526020018573ffffffffffffffffffffffffffffffffffffffff1663e912832d6040518163ffffffff167c010000000000000000000000000000000000000000000000000000000002815260040160206040518083038186803b15801562000ee357600080fd5b505afa15801562000ef8573d6000803e3d6000fd5b505050506040513d602081101562000f0f57600080fd5b81019080805190602001909291905050508152602001600160008773ffffffffffffffffffffffffffffffffffffffff1663e912832d6040518163ffffffff167c010000000000000000000000000000000000000000000000000000000002815260040160206040518083038186803b15801562000f8c57600080fd5b505afa15801562000fa1573d6000803e3d6000fd5b505050506040513d602081101562000fb857600080fd5b810190808051906020019092919050505081526020019081526020016000205481526020016000151581525090506000808573ffffffffffffffffffffffffffffffffffffffff1663e912832d6040518163ffffffff167c010000000000000000000000000000000000000000000000000000000002815260040160206040518083038186803b1580156200104c57600080fd5b505afa15801562001061573d6000803e3d6000fd5b505050506040513d60208110156200107857600080fd5b8101908080519060200190929190505050815260200190815260200160002081908060018154018082558091505090600182039060005260206000209060080201600090919290919091506000820151816000019080519060200190620010e1929190620013e6565b5060208201518160010160006101000a81548173ffffffffffffffffffffffffffffffffffffffff021916908373ffffffffffffffffffffffffffffffffffffffff160217905550604082015181600201556060820151816003015560808201518160040160006101000a81548173ffffffffffffffffffffffffffffffffffffffff021916908373ffffffffffffffffffffffffffffffffffffffff16021790555060a0820151816005015560c0820151816006015560e08201518160070160006101000a81548160ff021916908315150217905550505050600160008573ffffffffffffffffffffffffffffffffffffffff1663e912832d6040518163ffffffff167c010000000000000000000000000000000000000000000000000000000002815260040160206040518083038186803b1580156200122257600080fd5b505afa15801562001237573d6000803e3d6000fd5b505050506040513d60208110156200124e57600080fd5b810190808051906020019092919050505081526020019081526020016000206000815480929190600101919050555050505050565b600080846002548585620012966200146d565b8080602001858152602001848152602001838152602001828103825286818151815260200191508051906020019080838360005b83811015620012e7578082015181840152602081019050620012ca565b50505050905090810190601f168015620013155780820380516001836020036101000a031916815260200191505b5095505050505050604051809103906000f0801580156200133a573d6000803e3d6000fd5b509050600260008154809291906001019190505550809150509392505050565b60016020528060005260406000206000915090505481565b6101006040519081016040528060608152602001600073ffffffffffffffffffffffffffffffffffffffff1681526020016000815260200160008152602001600073ffffffffffffffffffffffffffffffffffffffff16815260200160008152602001600081526020016000151581525090565b828054600181600116156101000203166002900490600052602060002090601f016020900481019282601f106200142957805160ff19168380011785556200145a565b828001600101855582156200145a579182015b82811115620014595782518255916020019190600101906200143c565b5b5090506200146991906200147e565b5090565b6040516107c080620014a783390190565b620014a391905b808211156200149f57600081600090555060010162001485565b5090565b9056fe60806040526040516107c03803806107c08339810180604052608081101561002657600080fd5b81019080805164010000000081111561003e57600080fd5b8281019050602081018481111561005457600080fd5b815185600182028301116401000000008211171561007157600080fd5b505092919060200180519060200190929190805190602001909291908051906020019092919050505083600090805190602001906100b0929190610176565b5082600181905550816002819055508060038190555032600460006101000a81548173ffffffffffffffffffffffffffffffffffffffff021916908373ffffffffffffffffffffffffffffffffffffffff1602179055508160056000600460009054906101000a900473ffffffffffffffffffffffffffffffffffffffff1673ffffffffffffffffffffffffffffffffffffffff1673ffffffffffffffffffffffffffffffffffffffff168152602001908152602001600020819055505050505061021b565b828054600181600116156101000203166002900490600052602060002090601f016020900481019282601f106101b757805160ff19168380011785556101e5565b828001600101855582156101e5579182015b828111156101e45782518255916020019190600101906101c9565b5b5090506101f291906101f6565b5090565b61021891905b808211156102145760008160009055506001016101fc565b5090565b90565b6105968061022a6000396000f3fe608060405260043610610083576000357c0100000000000000000000000000000000000000000000000000000000900463ffffffff16806318160ddd1461008857806323b872dd146100b35780634a79d50c1461014657806370a08231146101d6578063771a3a1d1461023b5780638c72c54e14610266578063e912832d146102bd575b600080fd5b34801561009457600080fd5b5061009d6102e8565b6040518082815260200191505060405180910390f35b3480156100bf57600080fd5b5061012c600480360360608110156100d657600080fd5b81019080803573ffffffffffffffffffffffffffffffffffffffff169060200190929190803573ffffffffffffffffffffffffffffffffffffffff169060200190929190803590602001909291905050506102ee565b604051808215151515815260200191505060405180910390f35b34801561015257600080fd5b5061015b610482565b6040518080602001828103825283818151815260200191508051906020019080838360005b8381101561019b578082015181840152602081019050610180565b50505050905090810190601f1680156101c85780820380516001836020036101000a031916815260200191505b509250505060405180910390f35b3480156101e257600080fd5b50610225600480360360208110156101f957600080fd5b81019080803573ffffffffffffffffffffffffffffffffffffffff169060200190929190505050610520565b6040518082815260200191505060405180910390f35b34801561024757600080fd5b50610250610538565b6040518082815260200191505060405180910390f35b34801561027257600080fd5b5061027b61053e565b604051808273ffffffffffffffffffffffffffffffffffffffff1673ffffffffffffffffffffffffffffffffffffffff16815260200191505060405180910390f35b3480156102c957600080fd5b506102d2610564565b6040518082815260200191505060405180910390f35b60025481565b600081600560008673ffffffffffffffffffffffffffffffffffffffff1673ffffffffffffffffffffffffffffffffffffffff168152602001908152602001600020541015151561033e57600080fd5b81600560008673ffffffffffffffffffffffffffffffffffffffff1673ffffffffffffffffffffffffffffffffffffffff1681526020019081526020016000206000828254039250508190555081600560008573ffffffffffffffffffffffffffffffffffffffff1673ffffffffffffffffffffffffffffffffffffffff168152602001908152602001600020600082825401925050819055507fddf252ad1be2c89b69c2b068fc378daa952ba7f163c4a11628f55a4df523b3ef848484604051808473ffffffffffffffffffffffffffffffffffffffff1673ffffffffffffffffffffffffffffffffffffffff1681526020018373ffffffffffffffffffffffffffffffffffffffff1673ffffffffffffffffffffffffffffffffffffffff168152602001828152602001935050505060405180910390a1600190509392505050565b60008054600181600116156101000203166002900480601f0160208091040260200160405190810160405280929190818152602001828054600181600116156101000203166002900480156105185780601f106104ed57610100808354040283529160200191610518565b820191906000526020600020905b8154815290600101906020018083116104fb57829003601f168201915b505050505081565b60056020528060005260406000206000915090505481565b60035481565b600460009054906101000a900473ffffffffffffffffffffffffffffffffffffffff1681565b6001548156fea165627a7a7230582051f1583f36c3e9ee81d09c5995502911e844c234269675d09694fd0513c04cc90029a165627a7a72305820d6a904bdab1b51a5ddf042352f95f9ca7111bdf196efefb3fe804b3211f1f50b0029",
  "source": "\npragma solidity >=0.4.22 <0.6.0;\n\nimport \"./EBookToken.sol\";\n\ncontract Marketplace {\n\n  mapping(uint256 => Listing[]) public listings;\n  mapping(uint256 => uint256) public numListings;\n\n  uint256 public numBooks;\n\n  struct Listing {\n    string title;\n    EBookToken tokenContract;\n    uint256 bookPrice;\n    uint256 numCopies;\n    address payable owner;\n    uint256 bookId;\n    uint256 listingId;\n    bool sold;\n  }\n\n  constructor() public payable {\n\n  }\n\n  function sell(EBookToken _tokenContract, uint256 _bookPrice, uint256 _numCopies) public {\n    require(_tokenContract.balanceOf(tx.origin) >= _numCopies);\n\n    Listing memory l = Listing(_tokenContract.title(), _tokenContract, _bookPrice, _numCopies, tx.origin, _tokenContract.bookId(), numListings[_tokenContract.bookId()], false);\n\n\n    listings[_tokenContract.bookId()].push(l);\n    numListings[_tokenContract.bookId()]++;\n\n  }\n\n  function buy(uint256 _bookId, uint _listingId, uint256 _numToBuy) public payable {\n    require(listings[_bookId].length > _listingId);\n\n    Listing storage l = listings[_bookId][_listingId];\n    require(l.numCopies >= _numToBuy);\n    require(_numToBuy * l.bookPrice <= msg.value);\n\n    // transfers the tokens\n    require(l.tokenContract.transferFrom(l.owner, msg.sender, _numToBuy));\n    l.numCopies -= _numToBuy;\n\n    if(l.numCopies == 0) {\n      l.sold = true;\n    }\n\n    l.owner.transfer(_numToBuy * l.bookPrice * (100 - l.tokenContract.taxRate()) / 100);\n    l.tokenContract.publisher().transfer(_numToBuy * l.bookPrice * l.tokenContract.taxRate() / 100);\n    msg.sender.transfer(msg.value - _numToBuy * l.bookPrice);\n\n  }\n\n  function publish(string memory _title, uint256 _totalSupply, uint256 _taxRate) public returns (EBookToken b) {\n    EBookToken book = new EBookToken(_title, numBooks, _totalSupply, _taxRate);\n    numBooks++;\n    return book;\n  }\n\n  function publishAndSell(string memory _title, uint256 _totalSupply, uint256 _taxRate, uint256 _bookPrice) public {\n\n      EBookToken e = publish(_title, _totalSupply, _taxRate);\n\n      sell(e, _bookPrice, _totalSupply);\n\n  }\n\n\n\n}\n",
  "sourcePath": "/Users/timothyhuang/Desktop/ipsp19-textbook-rental/contracts/Marketplace.sol",
  "compiler": {
    "name": "solc",
    "version": "0.5.0+commit.1d4f565a.Emscripten.clang"
  },
  "schemaVersion": "3.0.1",
  "updatedAt": "2019-05-01T23:02:35.242Z",
  "devdoc": {
    "methods": {}
  },
  "userdoc": {
    "methods": {}
  }
}