{
  "contractName": "Marketplace",
  "abi": [
    {
      "constant": true,
      "inputs": [],
      "name": "numBooks",
      "outputs": [
        {
          "name": "",
          "type": "uint256"
        }
      ],
      "payable": false,
      "stateMutability": "view",
      "type": "function",
      "signature": "0x250caccc"
    },
    {
      "constant": true,
      "inputs": [
        {
          "name": "",
          "type": "uint256"
        },
        {
          "name": "",
          "type": "uint256"
        }
      ],
      "name": "listings",
      "outputs": [
        {
          "name": "title",
          "type": "string"
        },
        {
          "name": "tokenContract",
          "type": "address"
        },
        {
          "name": "bookPrice",
          "type": "uint256"
        },
        {
          "name": "numCopies",
          "type": "uint256"
        },
        {
          "name": "owner",
          "type": "address"
        },
        {
          "name": "bookId",
          "type": "uint256"
        },
        {
          "name": "listingId",
          "type": "uint256"
        },
        {
          "name": "sold",
          "type": "bool"
        },
        {
          "name": "resold",
          "type": "bool"
        }
      ],
      "payable": false,
      "stateMutability": "view",
      "type": "function",
      "signature": "0x4d3084d3"
    },
    {
      "constant": true,
      "inputs": [
        {
          "name": "",
          "type": "uint256"
        }
      ],
      "name": "numListings",
      "outputs": [
        {
          "name": "",
          "type": "uint256"
        }
      ],
      "payable": false,
      "stateMutability": "view",
      "type": "function",
      "signature": "0x6dd365c3"
    },
    {
      "anonymous": false,
      "inputs": [
        {
          "indexed": false,
          "name": "_title",
          "type": "string"
        },
        {
          "indexed": false,
          "name": "_bookPrice",
          "type": "uint256"
        },
        {
          "indexed": false,
          "name": "_numCopies",
          "type": "uint256"
        }
      ],
      "name": "Buy",
      "type": "event",
      "signature": "0x183d4cca0cae81103b950f41b719472f8e4eaa06915a46d428a2eecfd06e959e"
    },
    {
      "anonymous": false,
      "inputs": [
        {
          "indexed": false,
          "name": "_title",
          "type": "string"
        },
        {
          "indexed": false,
          "name": "_totalSupply",
          "type": "uint256"
        },
        {
          "indexed": false,
          "name": "_bookPrice",
          "type": "uint256"
        }
      ],
      "name": "PublishAndSell",
      "type": "event",
      "signature": "0x6fbe6e6745470f2026322b951d01571af07f815fff639e0ea1498eb32a5ff1ac"
    },
    {
      "constant": true,
      "inputs": [
        {
          "name": "_bookId",
          "type": "uint256"
        }
      ],
      "name": "balanceOf",
      "outputs": [
        {
          "name": "",
          "type": "uint256"
        }
      ],
      "payable": false,
      "stateMutability": "view",
      "type": "function",
      "signature": "0x9cc7f708"
    },
    {
      "constant": true,
      "inputs": [
        {
          "name": "_tokenContract",
          "type": "address"
        }
      ],
      "name": "getPublisher",
      "outputs": [
        {
          "name": "",
          "type": "address"
        }
      ],
      "payable": false,
      "stateMutability": "view",
      "type": "function",
      "signature": "0x8b043e08"
    },
    {
      "constant": false,
      "inputs": [
        {
          "name": "_bookId",
          "type": "uint256"
        },
        {
          "name": "_listingId",
          "type": "uint256"
        },
        {
          "name": "isResold",
          "type": "bool"
        }
      ],
      "name": "updateResold",
      "outputs": [],
      "payable": false,
      "stateMutability": "nonpayable",
      "type": "function",
      "signature": "0x53b2ad80"
    },
    {
      "constant": false,
      "inputs": [
        {
          "name": "_tokenContract",
          "type": "address"
        },
        {
          "name": "_bookPrice",
          "type": "uint256"
        },
        {
          "name": "_numCopies",
          "type": "uint256"
        }
      ],
      "name": "sell",
      "outputs": [],
      "payable": false,
      "stateMutability": "nonpayable",
      "type": "function",
      "signature": "0x6a272462"
    },
    {
      "constant": false,
      "inputs": [
        {
          "name": "_bookId",
          "type": "uint256"
        },
        {
          "name": "_listingId",
          "type": "uint256"
        },
        {
          "name": "_numToBuy",
          "type": "uint256"
        }
      ],
      "name": "buy",
      "outputs": [],
      "payable": true,
      "stateMutability": "payable",
      "type": "function",
      "signature": "0x40993b26"
    },
    {
      "constant": false,
      "inputs": [
        {
          "name": "_title",
          "type": "string"
        },
        {
          "name": "_totalSupply",
          "type": "uint256"
        },
        {
          "name": "_taxRate",
          "type": "uint256"
        }
      ],
      "name": "publish",
      "outputs": [
        {
          "name": "b",
          "type": "address"
        }
      ],
      "payable": false,
      "stateMutability": "nonpayable",
      "type": "function",
      "signature": "0x6a94b66a"
    },
    {
      "constant": false,
      "inputs": [
        {
          "name": "_title",
          "type": "string"
        },
        {
          "name": "_totalSupply",
          "type": "uint256"
        },
        {
          "name": "_taxRate",
          "type": "uint256"
        },
        {
          "name": "_bookPrice",
          "type": "uint256"
        }
      ],
      "name": "publishAndSell",
      "outputs": [],
      "payable": false,
      "stateMutability": "nonpayable",
      "type": "function",
      "signature": "0x40bddea5"
    }
  ],
  "bytecode": "0x608060405234801561001057600080fd5b50612405806100206000396000f3fe608060405260043610620000af576000357c0100000000000000000000000000000000000000000000000000000000900463ffffffff168063250caccc14620000b457806340993b2614620000e257806340bddea514620001275780634d3084d3146200021457806353b2ad8014620003715780636a27246214620003c65780636a94b66a146200042f5780636dd365c314620005525780638b043e0814620005a55780639cc7f708146200063a575b600080fd5b348015620000c157600080fd5b50620000cc6200068d565b6040518082815260200191505060405180910390f35b6200012560048036036060811015620000fa57600080fd5b8101908080359060200190929190803590602001909291908035906020019092919050505062000693565b005b3480156200013457600080fd5b5062000212600480360360808110156200014d57600080fd5b81019080803590602001906401000000008111156200016b57600080fd5b8201836020820111156200017e57600080fd5b80359060200191846001830284011164010000000083111715620001a157600080fd5b91908080601f016020809104026020016040519081016040528093929190818152602001838380828437600081840152601f19601f82011690508083019250505050505050919291929080359060200190929190803590602001909291908035906020019092919050505062000d2b565b005b3480156200022157600080fd5b506200025b600480360360408110156200023a57600080fd5b81019080803590602001909291908035906020019092919050505062000dff565b60405180806020018a73ffffffffffffffffffffffffffffffffffffffff1673ffffffffffffffffffffffffffffffffffffffff1681526020018981526020018881526020018773ffffffffffffffffffffffffffffffffffffffff1673ffffffffffffffffffffffffffffffffffffffff168152602001868152602001858152602001841515151581526020018315151515815260200182810382528b818151815260200191508051906020019080838360005b838110156200032d57808201518184015260208101905062000310565b50505050905090810190601f1680156200035b5780820380516001836020036101000a031916815260200191505b509a505050505050505050505060405180910390f35b3480156200037e57600080fd5b50620003c4600480360360608110156200039757600080fd5b81019080803590602001909291908035906020019092919080351515906020019092919050505062000f60565b005b348015620003d357600080fd5b506200042d60048036036060811015620003ec57600080fd5b81019080803573ffffffffffffffffffffffffffffffffffffffff169060200190929190803590602001909291908035906020019092919050505062000fae565b005b3480156200043c57600080fd5b5062000510600480360360608110156200045557600080fd5b81019080803590602001906401000000008111156200047357600080fd5b8201836020820111156200048657600080fd5b80359060200191846001830284011164010000000083111715620004a957600080fd5b91908080601f016020809104026020016040519081016040528093929190818152602001838380828437600081840152601f19601f82011690508083019250505050505050919291929080359060200190929190803590602001909291905050506200161a565b604051808273ffffffffffffffffffffffffffffffffffffffff1673ffffffffffffffffffffffffffffffffffffffff16815260200191505060405180910390f35b3480156200055f57600080fd5b506200058f600480360360208110156200057857600080fd5b8101908080359060200190929190505050620016f1565b6040518082815260200191505060405180910390f35b348015620005b257600080fd5b50620005f860048036036020811015620005cb57600080fd5b81019080803573ffffffffffffffffffffffffffffffffffffffff16906020019092919050505062001709565b604051808273ffffffffffffffffffffffffffffffffffffffff1673ffffffffffffffffffffffffffffffffffffffff16815260200191505060405180910390f35b3480156200064757600080fd5b5062000677600480360360208110156200066057600080fd5b8101908080359060200190929190505050620017b2565b6040518082815260200191505060405180910390f35b60025481565b8160008085815260200190815260200160002080549050111515620006b757600080fd5b600080600085815260200190815260200160002083815481101515620006d957fe5b9060005260206000209060080201905081816003015410151515620006fd57600080fd5b3481600201548302111515156200071357600080fd5b8060010160009054906101000a900473ffffffffffffffffffffffffffffffffffffffff1673ffffffffffffffffffffffffffffffffffffffff166323b872dd8260040160009054906101000a900473ffffffffffffffffffffffffffffffffffffffff1633856040518463ffffffff167c0100000000000000000000000000000000000000000000000000000000028152600401808473ffffffffffffffffffffffffffffffffffffffff1673ffffffffffffffffffffffffffffffffffffffff1681526020018373ffffffffffffffffffffffffffffffffffffffff1673ffffffffffffffffffffffffffffffffffffffff1681526020018281526020019350505050602060405180830381600087803b1580156200083357600080fd5b505af115801562000848573d6000803e3d6000fd5b505050506040513d60208110156200085f57600080fd5b810190808051906020019092919050505015156200087c57600080fd5b818160030160008282540392505081905550600081600301541415620008ba5760018160070160006101000a81548160ff0219169083151502179055505b60008160070160016101000a81548160ff0219169083151502179055508060040160009054906101000a900473ffffffffffffffffffffffffffffffffffffffff1673ffffffffffffffffffffffffffffffffffffffff166108fc60648360010160009054906101000a900473ffffffffffffffffffffffffffffffffffffffff1673ffffffffffffffffffffffffffffffffffffffff1663771a3a1d6040518163ffffffff167c010000000000000000000000000000000000000000000000000000000002815260040160206040518083038186803b1580156200099e57600080fd5b505afa158015620009b3573d6000803e3d6000fd5b505050506040513d6020811015620009ca57600080fd5b81019080805190602001909291905050506064038460020154860202811515620009f057fe5b049081150290604051600060405180830381858888f1935050505015801562000a1d573d6000803e3d6000fd5b508060010160009054906101000a900473ffffffffffffffffffffffffffffffffffffffff1673ffffffffffffffffffffffffffffffffffffffff16638c72c54e6040518163ffffffff167c010000000000000000000000000000000000000000000000000000000002815260040160206040518083038186803b15801562000aa557600080fd5b505afa15801562000aba573d6000803e3d6000fd5b505050506040513d602081101562000ad157600080fd5b810190808051906020019092919050505073ffffffffffffffffffffffffffffffffffffffff166108fc60648360010160009054906101000a900473ffffffffffffffffffffffffffffffffffffffff1673ffffffffffffffffffffffffffffffffffffffff1663771a3a1d6040518163ffffffff167c010000000000000000000000000000000000000000000000000000000002815260040160206040518083038186803b15801562000b8457600080fd5b505afa15801562000b99573d6000803e3d6000fd5b505050506040513d602081101562000bb057600080fd5b8101908080519060200190929190505050846002015486020281151562000bd357fe5b049081150290604051600060405180830381858888f1935050505015801562000c00573d6000803e3d6000fd5b503373ffffffffffffffffffffffffffffffffffffffff166108fc8260020154840234039081150290604051600060405180830381858888f1935050505015801562000c50573d6000803e3d6000fd5b507f183d4cca0cae81103b950f41b719472f8e4eaa06915a46d428a2eecfd06e959e81600001826002015484604051808060200184815260200183815260200182810382528581815460018160011615610100020316600290048152602001915080546001816001161561010002031660029004801562000d155780601f1062000ce95761010080835404028352916020019162000d15565b820191906000526020600020905b81548152906001019060200180831162000cf757829003601f168201915b505094505050505060405180910390a150505050565b600062000d3a8585856200161a565b905062000d4981838662000fae565b7f6fbe6e6745470f2026322b951d01571af07f815fff639e0ea1498eb32a5ff1ac8585846040518080602001848152602001838152602001828103825285818151815260200191508051906020019080838360005b8381101562000dbb57808201518184015260208101905062000d9e565b50505050905090810190601f16801562000de95780820380516001836020036101000a031916815260200191505b5094505050505060405180910390a15050505050565b60006020528160005260406000208181548110151562000e1b57fe5b906000526020600020906008020160009150915050806000018054600181600116156101000203166002900480601f01602080910402602001604051908101604052809291908181526020018280546001816001161561010002031660029004801562000ecc5780601f1062000ea05761010080835404028352916020019162000ecc565b820191906000526020600020905b81548152906001019060200180831162000eae57829003601f168201915b5050505050908060010160009054906101000a900473ffffffffffffffffffffffffffffffffffffffff16908060020154908060030154908060040160009054906101000a900473ffffffffffffffffffffffffffffffffffffffff16908060050154908060060154908060070160009054906101000a900460ff16908060070160019054906101000a900460ff16905089565b806000808581526020019081526020016000208381548110151562000f8157fe5b906000526020600020906008020160070160016101000a81548160ff021916908315150217905550505050565b808373ffffffffffffffffffffffffffffffffffffffff166370a08231326040518263ffffffff167c0100000000000000000000000000000000000000000000000000000000028152600401808273ffffffffffffffffffffffffffffffffffffffff1673ffffffffffffffffffffffffffffffffffffffff16815260200191505060206040518083038186803b1580156200104957600080fd5b505afa1580156200105e573d6000803e3d6000fd5b505050506040513d60208110156200107557600080fd5b8101908080519060200190929190505050101515156200109457600080fd5b6200109e62001a8f565b610120604051908101604052808573ffffffffffffffffffffffffffffffffffffffff16634a79d50c6040518163ffffffff167c010000000000000000000000000000000000000000000000000000000002815260040160006040518083038186803b1580156200110e57600080fd5b505afa15801562001123573d6000803e3d6000fd5b505050506040513d6000823e3d601f19601f8201168201806040525060208110156200114e57600080fd5b8101908080516401000000008111156200116757600080fd5b828101905060208101848111156200117e57600080fd5b81518560018202830111640100000000821117156200119c57600080fd5b505092919050505081526020018573ffffffffffffffffffffffffffffffffffffffff1681526020018481526020018381526020013273ffffffffffffffffffffffffffffffffffffffff1681526020018573ffffffffffffffffffffffffffffffffffffffff1663e912832d6040518163ffffffff167c010000000000000000000000000000000000000000000000000000000002815260040160206040518083038186803b1580156200125057600080fd5b505afa15801562001265573d6000803e3d6000fd5b505050506040513d60208110156200127c57600080fd5b81019080805190602001909291905050508152602001600160008773ffffffffffffffffffffffffffffffffffffffff1663e912832d6040518163ffffffff167c010000000000000000000000000000000000000000000000000000000002815260040160206040518083038186803b158015620012f957600080fd5b505afa1580156200130e573d6000803e3d6000fd5b505050506040513d60208110156200132557600080fd5b810190808051906020019092919050505081526020019081526020016000205481526020016000151581526020016000151581525090506000808573ffffffffffffffffffffffffffffffffffffffff1663e912832d6040518163ffffffff167c010000000000000000000000000000000000000000000000000000000002815260040160206040518083038186803b158015620013c257600080fd5b505afa158015620013d7573d6000803e3d6000fd5b505050506040513d6020811015620013ee57600080fd5b81019080805190602001909291905050508152602001908152602001600020819080600181540180825580915050906001820390600052602060002090600802016000909192909190915060008201518160000190805190602001906200145792919062001b0c565b5060208201518160010160006101000a81548173ffffffffffffffffffffffffffffffffffffffff021916908373ffffffffffffffffffffffffffffffffffffffff160217905550604082015181600201556060820151816003015560808201518160040160006101000a81548173ffffffffffffffffffffffffffffffffffffffff021916908373ffffffffffffffffffffffffffffffffffffffff16021790555060a0820151816005015560c0820151816006015560e08201518160070160006101000a81548160ff0219169083151502179055506101008201518160070160016101000a81548160ff021916908315150217905550505050600160008573ffffffffffffffffffffffffffffffffffffffff1663e912832d6040518163ffffffff167c010000000000000000000000000000000000000000000000000000000002815260040160206040518083038186803b158015620015b957600080fd5b505afa158015620015ce573d6000803e3d6000fd5b505050506040513d6020811015620015e557600080fd5b810190808051906020019092919050505081526020019081526020016000206000815480929190600101919050555050505050565b6000808460025485856200162d62001b93565b8080602001858152602001848152602001838152602001828103825286818151815260200191508051906020019080838360005b838110156200167e57808201518184015260208101905062001661565b50505050905090810190601f168015620016ac5780820380516001836020036101000a031916815260200191505b5095505050505050604051809103906000f080158015620016d1573d6000803e3d6000fd5b509050600260008154809291906001019190505550809150509392505050565b60016020528060005260406000206000915090505481565b60008173ffffffffffffffffffffffffffffffffffffffff16638c72c54e6040518163ffffffff167c010000000000000000000000000000000000000000000000000000000002815260040160206040518083038186803b1580156200176e57600080fd5b505afa15801562001783573d6000803e3d6000fd5b505050506040513d60208110156200179a57600080fd5b81019080805190602001909291905050509050919050565b6000620017be62001a8f565b6000808481526020019081526020016000206000815481101515620017df57fe5b90600052602060002090600802016101206040519081016040529081600082018054600181600116156101000203166002900480601f016020809104026020016040519081016040528092919081815260200182805460018160011615610100020316600290048015620018975780601f106200186b5761010080835404028352916020019162001897565b820191906000526020600020905b8154815290600101906020018083116200187957829003601f168201915b505050505081526020016001820160009054906101000a900473ffffffffffffffffffffffffffffffffffffffff1673ffffffffffffffffffffffffffffffffffffffff1673ffffffffffffffffffffffffffffffffffffffff16815260200160028201548152602001600382015481526020016004820160009054906101000a900473ffffffffffffffffffffffffffffffffffffffff1673ffffffffffffffffffffffffffffffffffffffff1673ffffffffffffffffffffffffffffffffffffffff16815260200160058201548152602001600682015481526020016007820160009054906101000a900460ff161515151581526020016007820160019054906101000a900460ff1615151515815250509050806020015173ffffffffffffffffffffffffffffffffffffffff166370a08231326040518263ffffffff167c0100000000000000000000000000000000000000000000000000000000028152600401808273ffffffffffffffffffffffffffffffffffffffff1673ffffffffffffffffffffffffffffffffffffffff16815260200191505060206040518083038186803b15801562001a4a57600080fd5b505afa15801562001a5f573d6000803e3d6000fd5b505050506040513d602081101562001a7657600080fd5b8101908080519060200190929190505050915050919050565b6101206040519081016040528060608152602001600073ffffffffffffffffffffffffffffffffffffffff1681526020016000815260200160008152602001600073ffffffffffffffffffffffffffffffffffffffff16815260200160008152602001600081526020016000151581526020016000151581525090565b828054600181600116156101000203166002900490600052602060002090601f016020900481019282601f1062001b4f57805160ff191683800117855562001b80565b8280016001018555821562001b80579182015b8281111562001b7f57825182559160200191906001019062001b62565b5b50905062001b8f919062001ba4565b5090565b60405161080d8062001bcd83390190565b62001bc991905b8082111562001bc557600081600090555060010162001bab565b5090565b9056fe608060405260405161080d38038061080d8339810180604052608081101561002657600080fd5b81019080805164010000000081111561003e57600080fd5b8281019050602081018481111561005457600080fd5b815185600182028301116401000000008211171561007157600080fd5b505092919060200180519060200190929190805190602001909291908051906020019092919050505083600090805190602001906100b0929190610176565b5082600181905550816002819055508060038190555032600460006101000a81548173ffffffffffffffffffffffffffffffffffffffff021916908373ffffffffffffffffffffffffffffffffffffffff1602179055508160056000600460009054906101000a900473ffffffffffffffffffffffffffffffffffffffff1673ffffffffffffffffffffffffffffffffffffffff1673ffffffffffffffffffffffffffffffffffffffff168152602001908152602001600020819055505050505061021b565b828054600181600116156101000203166002900490600052602060002090601f016020900481019282601f106101b757805160ff19168380011785556101e5565b828001600101855582156101e5579182015b828111156101e45782518255916020019190600101906101c9565b5b5090506101f291906101f6565b5090565b61021891905b808211156102145760008160009055506001016101fc565b5090565b90565b6105e38061022a6000396000f3fe60806040526004361061008e576000357c0100000000000000000000000000000000000000000000000000000000900463ffffffff16806318160ddd1461009357806323b872dd146100be5780634a79d50c14610151578063533c9b64146101e157806370a0823114610210578063771a3a1d146102755780638c72c54e146102a0578063e912832d146102f7575b600080fd5b34801561009f57600080fd5b506100a8610322565b6040518082815260200191505060405180910390f35b3480156100ca57600080fd5b50610137600480360360608110156100e157600080fd5b81019080803573ffffffffffffffffffffffffffffffffffffffff169060200190929190803573ffffffffffffffffffffffffffffffffffffffff16906020019092919080359060200190929190505050610328565b604051808215151515815260200191505060405180910390f35b34801561015d57600080fd5b506101666104bc565b6040518080602001828103825283818151815260200191508051906020019080838360005b838110156101a657808201518184015260208101905061018b565b50505050905090810190601f1680156101d35780820380516001836020036101000a031916815260200191505b509250505060405180910390f35b3480156101ed57600080fd5b506101f661055a565b604051808215151515815260200191505060405180910390f35b34801561021c57600080fd5b5061025f6004803603602081101561023357600080fd5b81019080803573ffffffffffffffffffffffffffffffffffffffff16906020019092919050505061056d565b6040518082815260200191505060405180910390f35b34801561028157600080fd5b5061028a610585565b6040518082815260200191505060405180910390f35b3480156102ac57600080fd5b506102b561058b565b604051808273ffffffffffffffffffffffffffffffffffffffff1673ffffffffffffffffffffffffffffffffffffffff16815260200191505060405180910390f35b34801561030357600080fd5b5061030c6105b1565b6040518082815260200191505060405180910390f35b60025481565b600081600560008673ffffffffffffffffffffffffffffffffffffffff1673ffffffffffffffffffffffffffffffffffffffff168152602001908152602001600020541015151561037857600080fd5b81600560008673ffffffffffffffffffffffffffffffffffffffff1673ffffffffffffffffffffffffffffffffffffffff1681526020019081526020016000206000828254039250508190555081600560008573ffffffffffffffffffffffffffffffffffffffff1673ffffffffffffffffffffffffffffffffffffffff168152602001908152602001600020600082825401925050819055507fddf252ad1be2c89b69c2b068fc378daa952ba7f163c4a11628f55a4df523b3ef848484604051808473ffffffffffffffffffffffffffffffffffffffff1673ffffffffffffffffffffffffffffffffffffffff1681526020018373ffffffffffffffffffffffffffffffffffffffff1673ffffffffffffffffffffffffffffffffffffffff168152602001828152602001935050505060405180910390a1600190509392505050565b60008054600181600116156101000203166002900480601f0160208091040260200160405190810160405280929190818152602001828054600181600116156101000203166002900480156105525780601f1061052757610100808354040283529160200191610552565b820191906000526020600020905b81548152906001019060200180831161053557829003601f168201915b505050505081565b600460149054906101000a900460ff1681565b60056020528060005260406000206000915090505481565b60035481565b600460009054906101000a900473ffffffffffffffffffffffffffffffffffffffff1681565b6001548156fea165627a7a723058205db66dea0d97cd5db442f08a094404b662465725763a94c2d57c0c595924a0d20029a165627a7a72305820e77f9bc57b9bb617dc5f9a6032f563dbcaf18cfe5716cc653824dc05b0e186380029",
  "source": "\npragma solidity >=0.4.22 <0.6.0;\n\nimport \"./EBookToken.sol\";\n\ncontract Marketplace {\n\n  mapping(uint256 => Listing[]) public listings;\n  mapping(uint256 => uint256) public numListings;\n\n  uint256 public numBooks;\n\n  struct Listing {\n    string title;\n    EBookToken tokenContract;\n    uint256 bookPrice;\n    uint256 numCopies;\n    address payable owner;\n    uint256 bookId;\n    uint256 listingId;\n    bool sold;\n    bool resold;\n  }\n\n  event Buy(\n    string _title,\n    uint256 _bookPrice,\n    uint256 _numCopies\n  );\n\n  event PublishAndSell(\n    string _title,\n    uint256 _totalSupply,\n    uint256 _bookPrice\n  );\n\n\n  function balanceOf(uint256 _bookId) public view returns (uint256) {\n    //require(listings[_bookId].length > 0);\n    Listing memory l = listings[_bookId][0];\n    return l.tokenContract.balanceOf(tx.origin);\n  }\n\n  function getPublisher(EBookToken _tokenContract) public view returns (address) {\n    return _tokenContract.publisher();\n  }\n\n  function updateResold(uint256 _bookId, uint _listingId, bool isResold) public {\n    listings[_bookId][_listingId].resold = isResold;\n  }\n\n\n  function sell(EBookToken _tokenContract, uint256 _bookPrice, uint256 _numCopies) public {\n    require(_tokenContract.balanceOf(tx.origin) >= _numCopies);\n\n    Listing memory l = Listing(_tokenContract.title(), _tokenContract, _bookPrice, _numCopies, tx.origin, _tokenContract.bookId(), numListings[_tokenContract.bookId()], false, false);\n\n    listings[_tokenContract.bookId()].push(l);\n    numListings[_tokenContract.bookId()]++;\n\n  }\n\n  function buy(uint256 _bookId, uint _listingId, uint256 _numToBuy) public payable {\n    require(listings[_bookId].length > _listingId);\n\n    Listing storage l = listings[_bookId][_listingId];\n    require(l.numCopies >= _numToBuy);\n    require(_numToBuy * l.bookPrice <= msg.value);\n\n    // transfers the tokens\n    require(l.tokenContract.transferFrom(l.owner, msg.sender, _numToBuy));\n    l.numCopies -= _numToBuy;\n\n    if(l.numCopies == 0) {\n      l.sold = true;\n    }\n\n    l.resold = false;\n\n    l.owner.transfer(_numToBuy * l.bookPrice * (100 - l.tokenContract.taxRate()) / 100);\n    l.tokenContract.publisher().transfer(_numToBuy * l.bookPrice * l.tokenContract.taxRate() / 100);\n    msg.sender.transfer(msg.value - _numToBuy * l.bookPrice);\n\n    emit Buy(l.title, l.bookPrice, _numToBuy);\n\n  }\n\n  function publish(string memory _title, uint256 _totalSupply, uint256 _taxRate) public returns (EBookToken b) {\n    EBookToken book = new EBookToken(_title, numBooks, _totalSupply, _taxRate);\n    numBooks++;\n    return book;\n  }\n\n  function publishAndSell(string memory _title, uint256 _totalSupply, uint256 _taxRate, uint256 _bookPrice) public {\n\n      EBookToken e = publish(_title, _totalSupply, _taxRate);\n\n      sell(e, _bookPrice, _totalSupply);\n\n      emit PublishAndSell(_title, _totalSupply, _bookPrice);\n\n  }\n\n\n\n}\n",
  "sourcePath": "/Users/jonathan/Desktop/textbook-rentals/contracts/Marketplace.sol",
  "compiler": {
    "name": "solc",
    "version": "0.5.0+commit.1d4f565a.Emscripten.clang"
  },
  "schemaVersion": "3.0.6",
  "updatedAt": "2019-05-03T23:21:39.395Z",
  "devdoc": {
    "methods": {}
  },
  "userdoc": {
    "methods": {}
  }
}